0119545110999992017010122004+40080+116585FM-15+003599999V0209999V001012200019N003500199-00801-01001999999ADDGF100991999999999999999999MA1102501999999MW1101REMMET060METAR ZBAA 012200Z VRB01MPS 3500 BR NSC M08/M10 Q1025 NOSIG=
0119545110999992017010122304+40080+116585FM-15+003599999V0209999V001012200019N005000199-00801-00901999999ADDGF100991999999999999999999MA1102501999999MW1101REMMET060METAR ZBAA 012230Z VRB01MPS 5000 BR NSC M08/M09 Q1025 NOSIG=
0110545110999992017010123004+40080+116585FM-15+003599999V0209999V001012200019N007000199-00601-01001999999ADDGF100991999999999999999999MA1102601999999REMMET057METAR ZBAA 012300Z VRB01MPS 7000 NSC M06/M10 Q1026 NOSIG=
0081545110999992017010123304+40080+116585FM-15+003599999V0203601N003019999999Y999999999-00701-01001999999ADDMA1102601999999REMMET054METAR ZBAA 012330Z 36003MPS CAVOK M07/M10 Q1026 NOSIG=
0169545110999992017010200004+39800+116470FM-12+003199999V0202201N0020102600199000500199-00771-00891102711ADDAA106999999AA224999999GA1071+026001101GA2999+999999101GA3999+999999101GE19MSL   +99999+99999GF107991071999026001999999MA1999999102291MD1210171+0001MW1481REMSYN004BUFR
0081545110999992017010200004+40080+116585FM-15+003599999V0203401N004019999999Y999999999-00401-00901999999ADDMA1102601999999REMMET054METAR ZBAA 020000Z 34004MPS CAVOK M04/M09 Q1026 NOSIG=
0081545110999992017010200304+40080+116585FM-15+003599999V0203401N004019999999Y999999999-00101-00801999999ADDMA1102701999999REMMET054METAR ZBAA 020030Z 34004MPS CAVOK M01/M08 Q1027 NOSIG=
0080545110999992017010201004+40080+116585FM-15+003599999V0203601N003019999999Y999999999+00101-00701999999ADDMA1102701999999REMMET053METAR ZBAA 020100Z 36003MPS CAVOK 01/M07 Q1027 NOSIG=
0080545110999992017010201304+40080+116585FM-15+003599999V0200101N003019999999Y999999999+00201-00801999999ADDMA1102701999999REMMET053METAR ZBAA 020130Z 01003MPS CAVOK 02/M08 Q1027 NOSIG=
0088545110999992017010202004+40080+116585FM-15+003599999V0203401V002019999999Y999999999+00401-00801999999ADDMA1102801999999REMMET061METAR ZBAA 020200Z 34002MPS 280V010 CAVOK 04/M08 Q1028 NOSIG=
0088545110999992017010202304+40080+116585FM-15+003599999V0203101V002019999999Y999999999+00501-00901999999ADDMA1102801999999REMMET061METAR ZBAA 020230Z 31002MPS 260V340 CAVOK 05/M09 Q1028 NOSIG=
0096545110999992017010203004+39933+116283FM-12+005599999V0202201N002019999999N000500199-00251-00351102841ADDAY141021AY241021MD1210131+9999MW1481REMSYN04854511 31905 02202 11025 21035 40284 52013 74844=
0088545110999992017010203004+40080+116585FM-15+003599999V0203501V002019999999Y999999999+00701-01001999999ADDMA1102701999999REMMET061METAR ZBAA 020300Z 35002MPS 320V040 CAVOK 07/M10 Q1027 NOSIG=
0088545110999992017010203304+40080+116585FM-15+003599999V0200201V003019999999Y999999999+00701-01101999999ADDMA1102701999999REMMET061METAR ZBAA 020330Z 02003MPS 350V050 CAVOK 07/M11 Q1027 NOSIG=
0088545110999992017010204004+40080+116585FM-15+003599999V0200101V002019999999Y999999999+00801-01201999999ADDMA1102601999999REMMET061METAR ZBAA 020400Z 01002MPS 330V040 CAVOK 08/M12 Q1026 NOSIG=
0080545110999992017010204304+40080+116585FM-15+003599999V0209999V001019999999Y999999999+00902-01301999999ADDMA1102601999999REMMET053METAR ZBAA 020430Z VRB01MPS CAVOK 09/M13 Q1026 NOSIG=
0117545110999992017010205004+40080+116585FM-15+003599999V0202101V005012200019N008000199+00601-00901999999ADDGF100991999999999999999999MA1102601999999REMMET064METAR ZBAA 020500Z 21005MPS 170V290 8000 NSC 06/M09 Q1026 NOSIG=
0117545110999992017010205304+40080+116585FM-15+003599999V0202001V003012200019N008000199+00701-01001999999ADDGF100991999999999999999999MA1102501999999REMMET064METAR ZBAA 020530Z 20003MPS 170V270 8000 NSC 07/M10 Q1025 NOSIG=
0128545110999992017010206004+39800+116470FM-12+003199999V0202201N0030122000199000900199+00371-00431102611ADDAA106999999AA224999999AY141061AY201061GF100991999999999999999999KA1240N-00801MA1999999102191MD1710231+9999MW1051REMSYN004BUFR
0117545110999992017010206004+40080+116585FM-15+003599999V0202001V004012200019N008000199+00801-01101999999ADDGF100991999999999999999999MA1102501999999REMMET064METAR ZBAA 020600Z 20004MPS 170V230 8000 NSC 08/M11 Q1025 NOSIG=
0117545110999992017010206304+40080+116585FM-15+003599999V0201701V003012200019N008000199+00801-01001999999ADDGF100991999999999999999999MA1102501999999REMMET064METAR ZBAA 020630Z 17003MPS 150V210 8000 NSC 08/M10 Q1025 NOSIG=
0109545110999992017010207004+40080+116585FM-15+003599999V0201701N003012200019N008000199+00801-01001999999ADDGF100991999999999999999999MA1102401999999REMMET056METAR ZBAA 020700Z 17003MPS 8000 NSC 08/M10 Q1024 NOSIG=
0126545110999992017010207304+40080+116585FM-15+003599999V0201901V004012200019N005000199+00601-00601999999ADDGF100991999999999999999999MA1102501999999MW1051REMMET067METAR ZBAA 020730Z 19004MPS 160V240 5000 HZ NSC 06/M06 Q1025 NOSIG=
0126545110999992017010208004+40080+116585FM-15+003599999V0201901V004012200019N003500199+00501-00601999999ADDGF100991999999999999999999MA1102501999999MW1051REMMET067METAR ZBAA 020800Z 19004MPS 160V220 3500 HZ NSC 05/M06 Q1025 NOSIG=
0118545110999992017010208304+40080+116585FM-15+003599999V0201701N003012200019N003000199+00301-00601999999ADDGF100991999999999999999999MA1102501999999MW1051REMMET059METAR ZBAA 020830Z 17003MPS 3000 HZ NSC 03/M06 Q1025 NOSIG=
0096545110999992017010209004+39933+116283FM-12+005599999V0202201N002019999999N001200199+00161-00651102541ADDAY101021AY201021MD1710071+9999MW1051REMSYN04854511 31912 02202 10016 21065 40254 57007 70500=
0145545110999992017010209004+40080+116585FM-15+003599999V0201801V004012200019N003000199+00301-00701999999ADDGF100991999999999999999999MA1102501999999MW1051REMMET086METAR ZBAA 020900Z 18004MPS 160V220 3000 HZ NSC 03/M07 Q1025 BECMG TL1010 2800 RMK HZ=
0118545110999992017010209304+40080+116585FM-15+003599999V0201801N003012200019N003000199+00001-00801999999ADDGF100991999999999999999999MA1102501999999MW1051REMMET059METAR ZBAA 020930Z 18003MPS 3000 HZ NSC 00/M08 Q1025 NOSIG=
0145545110999992017010210004+40080+116585FM-15+003599999V0201801V002012200019N003000199+00201-00701999999ADDGF100991999999999999999999MA1102501999999MW1051REMMET086METAR ZBAA 021000Z 18002MPS 120V230 3000 HZ NSC 02/M07 Q1025 BECMG TL1010 2800 RMK HZ=
0119545110999992017010210304+40080+116585FM-15+003599999V0201401N002012200019N002800199-00101-00701999999ADDGF100991999999999999999999MA1102501999999MW1051REMMET060METAR ZBAA 021030Z 14002MPS 2800 HZ NSC M01/M07 Q1025 NOSIG=
0131545110999992017010211004+40080+116585FM-15+003599999V0201401N001012200019N002800199-00201-00701999999ADDGF100991999999999999999999MA1102501999999MW1051REMMET072METAR ZBAA 021100Z 14001MPS 2800 HZ NSC M02/M07 Q1025 BECMG TL1220 3500=
0119545110999992017010211304+40080+116585FM-15+003599999V0201001N002012200019N002800199-00301-00701999999ADDGF100991999999999999999999MA1102501999999MW1051REMMET060METAR ZBAA 021130Z 10002MPS 2800 HZ NSC M03/M07 Q1025 NOSIG=
0115545110999992017010212004+39800+116470FM-12+003199999V0202201N0020122000199001100199-00041-00661102571ADDAA106999999AA224999999AY101061AY201061GF100991999999999999999999MA1999999102151MD1210031+9999MW1051REMSYN004BUFR
0139545110999992017010212004+40080+116585FM-15+003599999V0200601V002012200019N002800199-00301-00701999999ADDGF100991999999999999999999MA1102501999999MW1051REMMET080METAR ZBAA 021200Z 06002MPS 030V100 2800 HZ NSC M03/M07 Q1025 BECMG TL1220 3500=
0127545110999992017010212304+40080+116585FM-15+003599999V0201201V002012200019N003500199-00301-00701999999ADDGF100991999999999999999999MA1102501999999MW1051REMMET068METAR ZBAA 021230Z 12002MPS 080V160 3500 HZ NSC M03/M07 Q1025 NOSIG=
0119545110999992017010213004+40080+116585FM-15+003599999V0209999V001012200019N003500199-00301-00801999999ADDGF100991999999999999999999MA1102501999999MW1051REMMET060METAR ZBAA 021300Z VRB01MPS 3500 HZ NSC M03/M08 Q1025 NOSIG=
0119545110999992017010213304+40080+116585FM-15+003599999V0200901N002012200019N003000199-00401-00701999999ADDGF100991999999999999999999MA1102501999999MW1051REMMET060METAR ZBAA 021330Z 09002MPS 3000 HZ NSC M04/M07 Q1025 NOSIG=
0127545110999992017010214004+40080+116585FM-15+003599999V0200901V002012200019N003000199-00401-00801999999ADDGF100991999999999999999999MA1102501999999MW1051REMMET068METAR ZBAA 021400Z 09002MPS 070V140 3000 HZ NSC M04/M08 Q1025 NOSIG=
0119545110999992017010214304+40080+116585FM-15+003599999V0200801N001012200019N003000199-00301-00701999999ADDGF100991999999999999999999MA1102501999999MW1051REMMET060METAR ZBAA 021430Z 08001MPS 3000 HZ NSC M03/M07 Q1025 NOSIG=
0106545110999992017010215004+39933+116283FM-12+005599999V0209999C99999001201CN000600199-00361-00611102491ADDGF109991999999999999999999MD1710081+9999MW1051REMSYN04854511 31/06 90000 11036 21061 40249 57008 705//=
0119545110999992017010215004+40080+116585FM-15+003599999V0209999V001012200019N003000199-00301-00701999999ADDGF100991999999999999999999MA1102401999999MW1051REMMET060METAR ZBAA 021500Z VRB01MPS 3000 HZ NSC M03/M07 Q1024 NOSIG=
0119545110999992017010215304+40080+116585FM-15+003599999V0209999C000012200019N003000199-00301-00701999999ADDGF100991999999999999999999MA1102401999999MW1051REMMET060METAR ZBAA 021530Z 00000MPS 3000 HZ NSC M03/M07 Q1024 NOSIG=
0119545110999992017010216004+40080+116585FM-15+003599999V0209999C000012200019N003000199-00601-00901999999ADDGF100991999999999999999999MA1102401999999MW1051REMMET060METAR ZBAA 021600Z 00000MPS 3000 HZ NSC M06/M09 Q1024 NOSIG=
0119545110999992017010216304+40080+116585FM-15+003599999V0209999V001012200019N002700199-00601-00801999999ADDGF100991999999999999999999MA1102401999999MW1051REMMET060METAR ZBAA 021630Z VRB01MPS 2700 HZ NSC M06/M08 Q1024 NOSIG=
0119545110999992017010217004+40080+116585FM-15+003599999V0200501N002012200019N002500199-00601-00801999999ADDGF100991999999999999999999MA1102401999999MW1101REMMET060METAR ZBAA 021700Z 05002MPS 2500 BR NSC M06/M08 Q1024 NOSIG=
0119545110999992017010217304+40080+116585FM-15+003599999V0209999V001012200019N002500199-00701-00901999999ADDGF100991999999999999999999MA1102401999999MW1101REMMET060METAR ZBAA 021730Z VRB01MPS 2500 BR NSC M07/M09 Q1024 NOSIG=
0089545110999992017010218004+39800+116470FM-12+003199999V0201401N0010199999999000500199-00521-00701102411ADDAA106999999AA224999999AY101061AY201061MA1999999102001MD1710071+9999MW1051REMSYN004BUFR
0119545110999992017010218004+40080+116585FM-15+003599999V0209999C000012200019N002500199-00601-00801999999ADDGF100991999999999999999999MA1102401999999MW1101REMMET060METAR ZBAA 021800Z 00000MPS 2500 BR NSC M06/M08 Q1024 NOSIG=
0119545110999992017010218304+40080+116585FM-15+003599999V0209999V001012200019N002500199-00701-00901999999ADDGF100991999999999999999999MA1102401999999MW1101REMMET060METAR ZBAA 021830Z VRB01MPS 2500 BR NSC M07/M09 Q1024 NOSIG=
0119545110999992017010219004+40080+116585FM-15+003599999V0201301N001012200019N002500199-00701-00901999999ADDGF100991999999999999999999MA1102401999999MW1101REMMET060METAR ZBAA 021900Z 13001MPS 2500 BR NSC M07/M09 Q1024 NOSIG=
0119545110999992017010219304+40080+116585FM-15+003599999V0200101N002012200019N002500199-00701-00901999999ADDGF100991999999999999999999MA1102301999999MW1101REMMET060METAR ZBAA 021930Z 01002MPS 2500 BR NSC M07/M09 Q1023 NOSIG=
0119545110999992017010220004+40080+116585FM-15+003599999V0209999V001012200019N002500199-00701-00901999999ADDGF100991999999999999999999MA1102301999999MW1101REMMET060METAR ZBAA 022000Z VRB01MPS 2500 BR NSC M07/M09 Q1023 NOSIG=
0119545110999992017010220304+40080+116585FM-15+003599999V0209999C000012200019N002500199-00701-00901999999ADDGF100991999999999999999999MA1102301999999MW1101REMMET060METAR ZBAA 022030Z 00000MPS 2500 BR NSC M07/M09 Q1023 NOSIG=
0128545110999992017010221004+39933+116283FM-12+005599999V0201601N00101001201CN000500199-00551-00691102301ADDGE19MSL   +99999+99999GF109991999999999999999999MD1710121+9999MW1051REMSYN04854511 31905 91601 11055 21069 40230 57012 705//=
0119545110999992017010221004+40080+116585FM-15+003599999V0209999C000012200019N002500199-00801-01001999999ADDGF100991999999999999999999MA1102301999999MW1101REMMET060METAR ZBAA 022100Z 00000MPS 2500 BR NSC M08/M10 Q1023 NOSIG=
0119545110999992017010221304+40080+116585FM-15+003599999V0200101N001012200019N002700199-00801-01001999999ADDGF100991999999999999999999MA1102201999999MW1101REMMET060METAR ZBAA 022130Z 01001MPS 2700 BR NSC M08/M10 Q1022 NOSIG=
0119545110999992017010222004+40080+116585FM-15+003599999V0209999C000012200019N003000199-00801-00901999999ADDGF100991999999999999999999MA1102201999999MW1101REMMET060METAR ZBAA 022200Z 00000MPS 3000 BR NSC M08/M09 Q1022 NOSIG=
0119545110999992017010222304+40080+116585FM-15+003599999V0200401N001012200019N003000199-00901-01001999999ADDGF100991999999999999999999MA1102301999999MW1101REMMET060METAR ZBAA 022230Z 04001MPS 3000 BR NSC M09/M10 Q1023 NOSIG=
0119545110999992017010223004+40080+116585FM-15+003599999V0209999V001012200019N003000199-00801-00901999999ADDGF100991999999999999999999MA1102301999999MW1101REMMET060METAR ZBAA 022300Z VRB01MPS 3000 BR NSC M08/M09 Q1023 NOSIG=
0119545110999992017010223304+40080+116585FM-15+003599999V0209999V001012200019N003000199-00901-01001999999ADDGF100991999999999999999999MA1102301999999MW1101REMMET060METAR ZBAA 022330Z VRB01MPS 3000 BR NSC M09/M10 Q1023 NOSIG=
0099545110999992017010300004+39800+116470FM-12+003199999V0203601N0000122000199000500199-00501-00651102341ADDAA106999999AA224999999GF100991999999999999999999MA1999999101921MD1210041-0401MW1441REMSYN004BUFR
0168545110999992017010300004+40080+116585FM-15+003599999V0209999C000012200019N003000199-00601-00701999999ADDGF100991999999999999999999MA1102301999999MW1101REMMET109METAR ZBAA 030000Z 00000MPS 3000 R01/1400U R36R/P2000D R36L/P2000N BR NSC M06/M07 Q1023 BECMG TL0040 2500 BR=
0153545110999992017010300304+40080+116585FM-15+003599999V0200101N002012200019N002500199-00701-00901999999ADDGF100991999999999999999999MA1102301999999MW1101REMMET094METAR ZBAA 030030Z 01002MPS 2500 R01/1300N R36R/P2000D R36L/P2000D BR NSC M07/M09 Q1023 NOSIG=
0165545110999992017010301004+40080+116585FM-15+003599999V0203601N002012200019N002800199-00401-00601999999ADDGF100991999999999999999999MA1102301999999MW1101REMMET106METAR ZBAA 030100Z 36002MPS 2800 R01/1400U R36R/P2000U R36L/P2000U BR NSC M04/M06 Q1023 BECMG TL0140 3200=
0119545110999992017010301304+40080+116585FM-15+003599999V0203501N003012200019N003200199-00101-00601999999ADDGF100991999999999999999999MA1102401999999MW1101REMMET060METAR ZBAA 030130Z 35003MPS 3200 BR NSC M01/M06 Q1024 NOSIG=
0118545110999992017010302004+40080+116585FM-15+003599999V0209999V001012200019N004500199+00001-00701999999ADDGF100991999999999999999999MA1102401999999MW1101REMMET059METAR ZBAA 030200Z VRB01MPS 4500 BR NSC 00/M07 Q1024 NOSIG=
0118545110999992017010302304+40080+116585FM-15+003599999V0209999V001012200019N005000199+00101-00701999999ADDGF100991999999999999999999MA1102401999999MW1051REMMET059METAR ZBAA 030230Z VRB01MPS 5000 HZ NSC 01/M07 Q1024 NOSIG=
0166545110999992017010303004+39933+116283FM-12+005599999V0201601N002019999999N000400199-00121-00371102371ADDAY141021AY201021GA1071+999999999GE19MSL   +99999+99999GF107991071999999999999999MD1210031+9999MW1051REMSYN05454511 31904 71602 11012 21037 40237 52003 70540 87///=
0126545110999992017010303004+40080+116585FM-15+003599999V0203201V002012200019N005000199+00201-00901999999ADDGF100991999999999999999999MA1102301999999MW1051REMMET067METAR ZBAA 030300Z 32002MPS 280V340 5000 HZ NSC 02/M09 Q1023 NOSIG=
0118545110999992017010303304+40080+116585FM-15+003599999V0209999V001012200019N005000199+00401-00801999999ADDGF100991999999999999999999MA1102301999999MW1051REMMET059METAR ZBAA 030330Z VRB01MPS 5000 HZ NSC 04/M08 Q1023 NOSIG=
0109545110999992017010304004+40080+116585FM-15+003599999V0209999V001012200019N006000199+00501-00901999999ADDGF100991999999999999999999MA1102201999999REMMET056METAR ZBAA 030400Z VRB01MPS 6000 NSC 05/M09 Q1022 NOSIG=
0117545110999992017010304304+40080+116585FM-15+003599999V0203301V002012200019N006000199+00601-00901999999ADDGF100991999999999999999999MA1102101999999REMMET064METAR ZBAA 030430Z 33002MPS 300V360 6000 NSC 06/M09 Q1021 NOSIG=
0117545110999992017010305004+40080+116585FM-15+003599999V0203601V002012200019N006000199+00701-00901999999ADDGF100991999999999999999999MA1102101999999REMMET064METAR ZBAA 030500Z 36002MPS 330V030 6000 NSC 07/M09 Q1021 NOSIG=
0109545110999992017010305304+40080+116585FM-15+003599999V0209999V001012200019N006000199+00701-01001999999ADDGF100991999999999999999999MA1102001999999REMMET056METAR ZBAA 030530Z VRB01MPS 6000 NSC 07/M10 Q1020 NOSIG=
0198545110999992017010306004+39800+116470FM-12+003199999V0202001N0030102600199000600199+00321-00341102101ADDAA106999999AA224999999AY141061AY201061GA1071+026001101GA2999+999999101GA3999+999999101GE19MSL   +99999+99999GF107991071999026001999999KA1240N-00571MA1999999101691MD1710261+9999MW1051REMSYN004BUFR
0109545110999992017010306004+40080+116585FM-15+003599999V0209999V001012200019N006000199+00801-00901999999ADDGF100991999999999999999999MA1102001999999REMMET056METAR ZBAA 030600Z VRB01MPS 6000 NSC 08/M09 Q1020 NOSIG=
0109545110999992017010306304+40080+116585FM-15+003599999V0209999V001012200019N006000199+00801-01001999999ADDGF100991999999999999999999MA1102001999999REMMET056METAR ZBAA 030630Z VRB01MPS 6000 NSC 08/M10 Q1020 NOSIG=
0117545110999992017010307004+40080+116585FM-15+003599999V0201901V003012200019N006000199+00901-00801999999ADDGF100991999999999999999999MA1102001999999REMMET064METAR ZBAA 030700Z 19003MPS 150V250 6000 NSC 09/M08 Q1020 NOSIG=
0117545110999992017010307304+40080+116585FM-15+003599999V0201701V002012200019N006000199+00801-00801999999ADDGF100991999999999999999999MA1102001999999REMMET064METAR ZBAA 030730Z 17002MPS 130V210 6000 NSC 08/M08 Q1020 NOSIG=
0183545110999992017010308004+40080+116585FM-15+003599999V0201901V004012200019N001500199+00701-00501999999ADDGF100991999999999999999999MA1102001999999MW1051REMMET124METAR COR ZBAA 030800Z 19004MPS 160V220 1500 R01/1400N R36R/1200N R36L/1400VP2000D HZ NSC 07/M05 Q1020 BECMG TL0840 1200 HZ=
0158545110999992017010308304+40080+116585FM-15+003599999V0201601V003012200019N001400199+00401-00501999999ADDGF100991999999999999999999MA1102101999999MW1051REMMET099METAR ZBAA 030830Z 16003MPS 110V230 1400 R01/1400N R36R/1400N R36L/1500N HZ NSC 04/M05 Q1021 NOSIG=
0166545110999992017010309004+39933+116283FM-12+005599999V0202201N002019999999N000700199+00191-00421102171ADDAY101021AY201021GA1071+999999999GE19MSL   +99999+99999GF107991071999999999999999MD1210071+9999MW1051REMSYN05454511 31907 72202 10019 21042 40217 52007 70500 87///=
0158545110999992017010309004+40080+116585FM-15+003599999V0201401V002012200019N001400199+00301-00401999999ADDGF100991999999999999999999MA1102101999999MW1051REMMET099METAR ZBAA 030900Z 14002MPS 100V170 1400 R01/1600N R36R/1700N R36L/1800U HZ NSC 03/M04 Q1021 NOSIG=
0160545110999992017010309304+40080+116585FM-15+003599999V0201101V002012200019N001400199+00101-00501999999ADDGF100991999999999999999999MA1102201999999MW1051REMMET101METAR ZBAA 030930Z 11002MPS 080V140 1400 R01/1900N R36R/P2000N R36L/P2000U HZ NSC 01/M05 Q1022 NOSIG=
0165545110999992017010310004+40080+116585FM-15+003599999V0209999V001012200019N001400199+00001-00401999999ADDGF100991999999999999999999MA1102201999999MW1051REMMET106METAR ZBAA 031000Z VRB01MPS 1400 R01/1900D R36R/P2000N R36L/P2000N HZ NSC M00/M04 Q1022 BECMG TL1040 1500=
0119545110999992017010310304+40080+116585FM-15+003599999V0209999V001012200019N001700199-00201-00501999999ADDGF100991999999999999999999MA1102201999999MW1051REMMET060METAR ZBAA 031030Z VRB01MPS 1700 HZ NSC M02/M05 Q1022 NOSIG=
0119545110999992017010311004+40080+116585FM-15+003599999V0209999V001012200019N001700199-00201-00501999999ADDGF100991999999999999999999MA1102301999999MW1051REMMET060METAR ZBAA 031100Z VRB01MPS 1700 HZ NSC M02/M05 Q1023 NOSIG=
0119545110999992017010311304+40080+116585FM-15+003599999V0209999V001012200019N001700199-00101-00401999999ADDGF100991999999999999999999MA1102301999999MW1051REMMET060METAR ZBAA 031130Z VRB01MPS 1700 HZ NSC M01/M04 Q1023 NOSIG=
0185545110999992017010312004+39800+116470FM-12+003199999V0201601N0010102600199000300199-00071-00271102401ADDAA106999999AA224999999AY101061AY201061GA1071+026001101GA2999+999999101GA3999+999999101GE19MSL   +99999+99999GF107991071999026001999999MA1999999101981MD1210221+9999MW1051REMSYN004BUFR
0119545110999992017010312004+40080+116585FM-15+003599999V0209999V001012200019N001600199-00301-00501999999ADDGF100991999999999999999999MA1102301999999MW1051REMMET060METAR ZBAA 031200Z VRB01MPS 1600 HZ NSC M03/M05 Q1023 NOSIG=
0151545110999992017010312304+40080+116585FM-15+003599999V0200601N001012200019N001600199-00501-00801999999ADDGF100991999999999999999999MA1102401999999MW1051REMMET092METAR ZBAA 031230Z 06001MPS 1600 R01/1400N R36R/1800N R36L/2000N HZ NSC M05/M08 Q1024 NOSIG=
0166545110999992017010313004+40080+116585FM-15+003599999V0200801N001012200019N001500199-00301-00401999999ADDGF100991999999999999999999MA1102401999999MW1101REMMET107METAR ZBAA 031300Z 08001MPS 1500 R01/1400N R36R/1600N R36L/1800N BR NSC M03/M04 Q1024 BECMG TL1340 1400 BR=
0151545110999992017010313304+40080+116585FM-15+003599999V0200701N002012200019N001400199-00501-00601999999ADDGF100991999999999999999999MA1102401999999MW1101REMMET092METAR ZBAA 031330Z 07002MPS 1400 R01/1200N R36R/1600N R36L/1700N BR NSC M05/M06 Q1024 NOSIG=
0151545110999992017010314004+40080+116585FM-15+003599999V0209999V001012200019N001400199-00301-00401999999ADDGF100991999999999999999999MA1102401999999MW1101REMMET092METAR ZBAA 031400Z VRB01MPS 1400 R01/1300N R36R/1500N R36L/1700N BR NSC M03/M04 Q1024 NOSIG=
0151545110999992017010314304+40080+116585FM-15+003599999V0209999V001012200019N001400199-00301-00401999999ADDGF100991999999999999999999MA1102401999999MW1101REMMET092METAR ZBAA 031430Z VRB01MPS 1400 R01/1100N R36R/1500N R36L/1600N BR NSC M03/M04 Q1024 NOSIG=
0106545110999992017010315004+39933+116283FM-12+005599999V0202001N00201000601CN000200199-00331-00411102511ADDGF109991999999999999999999MD1210111+9999MW1461REMSYN04854511 31/02 92002 11033 21041 40251 52011 746//=
0151545110999992017010315004+40080+116585FM-15+003599999V0209999V001012200019N001300199-00401-00501999999ADDGF100991999999999999999999MA1102401999999MW1101REMMET092METAR ZBAA 031500Z VRB01MPS 1300 R01/1200N R36R/1600N R36L/1400D BR NSC M04/M05 Q1024 NOSIG=
0151545110999992017010315304+40080+116585FM-15+003599999V0209999V001012200019N001300199-00501-00601999999ADDGF100991999999999999999999MA1102401999999MW1101REMMET092METAR ZBAA 031530Z VRB01MPS 1300 R01/0900N R36R/1500N R36L/1500N BR NSC M05/M06 Q1024 NOSIG=
0151545110999992017010316004+40080+116585FM-15+003599999V0209999V001012200019N001300199-00501-00601999999ADDGF100991999999999999999999MA1102501999999MW1101REMMET092METAR ZBAA 031600Z VRB01MPS 1300 R01/0900N R36R/1400N R36L/1300N BR NSC M05/M06 Q1025 NOSIG=
0159545110999992017010316304+40080+116585FM-15+003599999V0201701V002012200019N001300199-00501-00601999999ADDGF100991999999999999999999MA1102501999999MW1101REMMET100METAR ZBAA 031630Z 17002MPS 150V210 1300 R01/0900N R36R/1100N R36L/1300N BR NSC M05/M06 Q1025 NOSIG=
0151545110999992017010317004+40080+116585FM-15+003599999V0209999V001012200019N001200199-00401-00501999999ADDGF100991999999999999999999MA1102501999999MW1101REMMET092METAR ZBAA 031700Z VRB01MPS 1200 R01/0900N R36R/1100U R36L/1200N BR NSC M04/M05 Q1025 NOSIG=
0151545110999992017010317304+40080+116585FM-15+003599999V0200701N001012200019N001200199-00601-00701999999ADDGF100991999999999999999999MA1102501999999MW1101REMMET092METAR ZBAA 031730Z 07001MPS 1200 R01/0900N R36R/1200N R36L/1200D BR NSC M06/M07 Q1025 NOSIG=
0089545110999992017010318004+39800+116470FM-12+003199999V0202201N0010199999999000050199-00401-00461102551ADDAA106999999AA224999999AY141061AY201061MA1999999102141MD1210051+9999MW1441REMSYN004BUFR
0151545110999992017010318004+40080+116585FM-15+003599999V0209999V001012200019N001200199-00501-00601999999ADDGF100991999999999999999999MA1102501999999MW1101REMMET092METAR ZBAA 031800Z VRB01MPS 1200 R01/1000N R36R/1100N R36L/1100D BR NSC M05/M06 Q1025 NOSIG=
0151545110999992017010318304+40080+116585FM-15+003599999V0200901N001012200019N001000199-00601-00801999999ADDGF100991999999999999999999MA1102501999999MW1101REMMET092METAR ZBAA 031830Z 09001MPS 1000 R01/0800N R36R/1300N R36L/1200N BR NSC M06/M08 Q1025 NOSIG=
0153545110999992017010319004+40080+116585FM-15+003599999V0200801N001012200019N000900199-00601-00601999999ADDGF100991999999999999999999MA1102501999999MW1481REMMET094METAR ZBAA 031900Z 08001MPS 0900 R01/0800N R36R/1000N R36L/1400N FZFG NSC M06/M06 Q1025 NOSIG=
0158545110999992017010319304+40080+116585FM-15+003599999V0209999V001012200019N000800199-00601-00601999999ADDGF100991999999999999999999MA1102501999999MW1481REMMET099METAR ZBAA 031930Z VRB01MPS 0800 R01/0900N R36R/0800V1200N R36L/1300N FZFG NSC M06/M06 Q1025 NOSIG=
0158545110999992017010320004+40080+116585FM-15+003599999V0209999V001012200019N000700199-00701-00801999999ADDGF100991999999999999999999MA1102501999999MW1481REMMET099METAR ZBAA 032000Z VRB01MPS 0700 R01/0300V0750D R36R/1000U R36L/1200N FZFG NSC M07/M08 Q1025 NOSIG=
0158545110999992017010320304+40080+116585FM-15+003599999V0200501N001012200019N000700199-00701-00801999999ADDGF100991999999999999999999MA1102501999999MW1481REMMET099METAR ZBAA 032030Z 05001MPS 0700 R01/0550V0800U R36R/0900N R36L/1200N FZFG NSC M07/M08 Q1025 NOSIG=
0128545110999992017010321004+39933+116283FM-12+005599999V0203601N00101000001CN000000199-00431-00471102551ADDGE19MSL   +99999+99999GF109991999999999999999999MD1710011+9999MW1441REMSYN04854511 31900 93601 11043 21047 40255 57001 744//=
0158545110999992017010321004+40080+116585FM-15+003599999V0209999V001012200019N000700199-00701-00801999999ADDGF100991999999999999999999MA1102501999999MW1481REMMET099METAR ZBAA 032100Z VRB01MPS 0700 R01/0100V0175D R36R/0900N R36L/1000N FZFG NSC M07/M08 Q1025 NOSIG=
0153545110999992017010321304+40080+116585FM-15+003599999V0209999V001012200019N000600199-00701-00701999999ADDGF100991999999999999999999MA1102501999999MW1481REMMET094METAR ZBAA 032130Z VRB01MPS 0600 R01/0100N R36R/0700D R36L/1000U FZFG NSC M07/M07 Q1025 NOSIG=
0174545110999992017010322004+40080+116585FM-15+003599999V0209999V001012200019N000600199-00701-00801999999ADDGF100991999999999999999999MA1102501999999MW1481REMMET115METAR COR ZBAA 032200Z VRB01MPS 0600 R01/0075N R36R/0900N R36L/1000N FZFG NSC M07/M08 Q1025 BECMG TL2250 0400 FZFG=
0153545110999992017010322304+40080+116585FM-15+003599999V0209999C000012200019N000500199-00801-00901999999ADDGF100991999999999999999999MA1102501999999MW1481REMMET094METAR ZBAA 032230Z 00000MPS 0500 R01/0075N R36R/1100N R36L/1200D FZFG NSC M08/M09 Q1025 NOSIG=
0175545110999992017010323004+40080+116585FM-15+003599999V0209999V001012200019N000900199-00901-01001999999ADDGF100991999999999999999999MA1102501999999MW1481REMMET116METAR ZBAA 032300Z VRB01MPS 0900 R01/0100N R36R/P2000N R36L/1400VP2000U FZFG NSC M09/M10 Q1025 BECMG TL2350 1600 BR=
0164545110999992017010323304+40080+116585FM-15+003599999V0201601N002012200019N001600199-00901-01001999999ADDGF100991999999999999999999MA1102601999999MW1101MW2111REMMET099METAR ZBAA 032330Z 16002MPS 1600 R01/0100N R36R/P2000N R36L/P2000D BR PRFG NSC M09/M10 Q1026 NOSIG=
0079545110999992017010400004+39800+116470FM-12+003199999V0203601N0000199999999000050199-00471-00521102651ADDAA124000091AJ199999999999999MA1999999102231MD1210101+0301MW1451REMSYN004BUFR
0178545110999992017010400004+40080+116585FM-15+003599999V0201601N001012200019N001500199-00901-01001999999ADDGF100991999999999999999999MA1102601999999MW1101MW2111REMMET113METAR ZBAA 040000Z 16001MPS 1500 R01/0100N R36R/P2000D R36L/1500D BR PRFG NSC M09/M10 Q1026 BECMG TL0040 1400 BR=
0168545110999992017010400304+40080+116585FM-15+003599999V0209999V001012200019N001300199-00801-00801999999ADDGF100991999999999999999999MA1102601999999MW1101MW2111REMMET103METAR ZBAA 040030Z VRB01MPS 1300 R01/0400N R36R/1000VP2000U R36L/1300D BR PRFG NSC M08/M08 Q1026 NOSIG=
0179545110999992017010401004+40080+116585FM-15+003599999V0209999V001012200019N001700199-00501-00601999999ADDGF100991999999999999999999MA1102701999999MW1101MW2111REMMET114METAR COR ZBAA 040100Z VRB01MPS 1700 R01/0600N R36R/P2000U R36L/1000N BR PRFG NSC M05/M06 Q1027 BECMG TL0140 3000=
0164545110999992017010401304+40080+116585FM-15+003599999V0209999V001012200019N004000199-00301-00301999999ADDGF100991999999999999999999MA1102701999999MW1101MW2111REMMET099METAR ZBAA 040130Z VRB01MPS 4000 R01/0800N R36R/P2000D R36L/P2000U BR PRFG NSC M03/M03 Q1027 NOSIG=
0164545110999992017010402004+40080+116585FM-15+003599999V0209999V001012200019N004000199-00201-00301999999ADDGF100991999999999999999999MA1102701999999MW1101MW2111REMMET099METAR ZBAA 040200Z VRB01MPS 4000 R01/0900N R36R/P2000N R36L/P2000N BR PRFG NSC M02/M03 Q1027 NOSIG=
0163545110999992017010402304+40080+116585FM-15+003599999V0201201N001012200019N003100199-00101-00301999999ADDGF100991999999999999999999MA1102701999999MW1101MW2111REMMET098METAR ZBAA 040230Z 12001MPS 3100 R01/0900N R36R/1300N R36L/P2000D BR PRFG NSC M01/M03 Q1027 NOSIG=
0166545110999992017010403004+39933+116283FM-12+005599999V0202501N001019999999N000200199-00211-00271102751ADDAY141021AY241021GA1071+999999999GE19MSL   +99999+99999GF107991071999999999999999MD1210101+9999MW1441REMSYN05454511 31902 72501 11021 21027 40275 52010 74444 87///=
0165545110999992017010403004+40080+116585FM-15+003599999V0209999V001012200019N003000199+00001-00601999999ADDGF100991999999999999999999MA1102701999999MW1051REMMET106METAR ZBAA 040300Z VRB01MPS 3000 R01/1100U R36R/1300N R36L/2000N HZ NSC 00/M06 Q1027 BECMG TL0340 2400 BR=
0158545110999992017010403304+40080+116585FM-15+003599999V0201401V002012200019N002200199+00101-00501999999ADDGF100991999999999999999999MA1102701999999MW1051REMMET099METAR ZBAA 040330Z 14002MPS 120V180 2200 R01/1200N R36R/1200N R36L/1700N HZ NSC 01/M05 Q1027 NOSIG=
0158545110999992017010404004+40080+116585FM-15+003599999V0201501V002012200019N001700199+00301-00501999999ADDGF100991999999999999999999MA1102601999999MW1051REMMET099METAR ZBAA 040400Z 15002MPS 120V180 1700 R01/1300N R36R/1300N R36L/1700N HZ NSC 03/M05 Q1026 NOSIG=
0158545110999992017010404304+40080+116585FM-15+003599999V0201001V002012200019N001700199+00301-00601999999ADDGF100991999999999999999999MA1102601999999MW1051REMMET099METAR ZBAA 040430Z 10002MPS 060V140 1700 R01/1300N R36R/1300N R36L/1900D HZ NSC 03/M06 Q1026 NOSIG=
0158545110999992017010405004+40080+116585FM-15+003599999V0201401V003012200019N001700199+00401-00501999999ADDGF100991999999999999999999MA1102601999999MW1051REMMET099METAR ZBAA 040500Z 14003MPS 090V170 1700 R01/1400N R36R/1300N R36L/1500N HZ NSC 04/M05 Q1026 NOSIG=
0150545110999992017010405304+40080+116585FM-15+003599999V0201501N003012200019N002000199+00501-00501999999ADDGF100991999999999999999999MA1102501999999MW1051REMMET091METAR ZBAA 040530Z 15003MPS 2000 R01/1400N R36R/1700N R36L/1800N HZ NSC 05/M05 Q1025 NOSIG=
0198545110999992017010406004+39800+116470FM-12+003199999V0200701N0020102600199000700199+00361-00281102501ADDAA106999999AA224999999AY141061AY201061GA1071+026001101GA2999+999999101GA3999+999999101GE19MSL   +99999+99999GF107991071999026001999999KA1240N-00531MA1999999102091MD1710241+9999MW1051REMSYN004BUFR
0126545110999992017010406004+40080+116585FM-15+003599999V0201501V003012200019N002200199+00501-00501999999ADDGF100991999999999999999999MA1102501999999MW1051REMMET067METAR ZBAA 040600Z 15003MPS 110V180 2200 HZ NSC 05/M05 Q1025 NOSIG=
0126545110999992017010406304+40080+116585FM-15+003599999V0201601V002012200019N002200199+00501-00501999999ADDGF100991999999999999999999MA1102501999999MW1051REMMET067METAR ZBAA 040630Z 16002MPS 140V200 2200 HZ NSC 05/M05 Q1025 NOSIG=
0126545110999992017010407004+40080+116585FM-15+003599999V0201501V002012200019N002200199+00501-00401999999ADDGF100991999999999999999999MA1102501999999MW1051REMMET067METAR ZBAA 040700Z 15002MPS 100V190 2200 HZ NSC 05/M04 Q1025 NOSIG=
0126545110999992017010407304+40080+116585FM-15+003599999V0201201V002012200019N002200199+00601-00401999999ADDGF100991999999999999999999MA1102501999999MW1051REMMET067METAR ZBAA 040730Z 12002MPS 060V180 2200 HZ NSC 06/M04 Q1025 NOSIG=
0118545110999992017010408004+40080+116585FM-15+003599999V0200801N002012200019N002500199+00501-00501999999ADDGF100991999999999999999999MA1102501999999MW1051REMMET059METAR ZBAA 040800Z 08002MPS 2500 HZ NSC 05/M05 Q1025 NOSIG=
0118545110999992017010408304+40080+116585FM-15+003599999V0201001N001012200019N002500199+00401-00501999999ADDGF100991999999999999999999MA1102501999999MW1051REMMET059METAR ZBAA 040830Z 10001MPS 2500 HZ NSC 04/M05 Q1025 NOSIG=
0166545110999992017010409004+39933+116283FM-12+005599999V0201601N001019999999N000900199+00171-00381102611ADDAY101021AY201021GA1071+999999999GE19MSL   +99999+99999GF107991071999999999999999MD1210101+9999MW1051REMSYN05454511 31909 71601 10017 21038 40261 52010 70500 87///=
0118545110999992017010409004+40080+116585FM-15+003599999V0209999C000012200019N002500199+00301-00501999999ADDGF100991999999999999999999MA1102601999999MW1051REMMET059METAR ZBAA 040900Z 00000MPS 2500 HZ NSC 03/M05 Q1026 NOSIG=
0118545110999992017010409304+40080+116585FM-15+003599999V0201001N001012200019N002500199+00101-00601999999ADDGF100991999999999999999999MA1102601999999MW1051REMMET059METAR ZBAA 040930Z 10001MPS 2500 HZ NSC 01/M06 Q1026 NOSIG=
0131545110999992017010410004+40080+116585FM-15+003599999V0201601N002012200019N002500199+00001-00501999999ADDGF100991999999999999999999MA1102601999999MW1051REMMET072METAR ZBAA 041000Z 16002MPS 2500 HZ NSC M00/M05 Q1026 BECMG TL1120 3000=
0126545110999992017010410304+40080+116585FM-15+003599999V0201701V003012200019N002500199+00101-00301999999ADDGF100991999999999999999999MA1102601999999MW1051REMMET067METAR ZBAA 041030Z 17003MPS 150V220 2500 HZ NSC 01/M03 Q1026 NOSIG=
0131545110999992017010411004+40080+116585FM-15+003599999V0201301N002012200019N002700199-00101-00301999999ADDGF100991999999999999999999MA1102701999999MW1051REMMET072METAR ZBAA 041100Z 13002MPS 2700 HZ NSC M01/M03 Q1027 BECMG TL1120 3000=
0119545110999992017010411304+40080+116585FM-15+003599999V0201401N002012200019N003000199-00101-00301999999ADDGF100991999999999999999999MA1102701999999MW1101REMMET060METAR ZBAA 041130Z 14002MPS 3000 BR NSC M01/M03 Q1027 NOSIG=
0185545110999992017010412004+39800+116470FM-12+003199999V0200701N0010102600199000600199-00091-00311102761ADDAA106999999AA224999999AY101061AY201061GA1071+026001101GA2999+999999101GA3999+999999101GE19MSL   +99999+99999GF107991071999026001999999MA1999999102341MD1210151+9999MW1051REMSYN004BUFR
0142545110999992017010412004+40080+116585FM-15+003599999V0201101V002012200019N003000199-00201-00301999999ADDGF100991999999999999999999MA1102701999999MW1101REMMET083METAR ZBAA 041200Z 11002MPS 070V140 3000 BR NSC M02/M03 Q1027 BECMG TL1240 2500 BR=
0119545110999992017010412304+40080+116585FM-15+003599999V0201001N002012200019N002200199-00101-00301999999ADDGF100991999999999999999999MA1102801999999MW1101REMMET060METAR ZBAA 041230Z 10002MPS 2200 BR NSC M01/M03 Q1028 NOSIG=
0174545110999992017010413004+40080+116585FM-15+003599999V0201101V003012200019N001600199-00201-00301999999ADDGF100991999999999999999999MA1102801999999MW1101REMMET115METAR ZBAA 041300Z 11003MPS 080V140 1600 R01/1000N R36R/1100N R36L/0900N BR NSC M02/M03 Q1028 BECMG TL1340 1200 BR=
0164545110999992017010413304+40080+116585FM-15+003599999V0201201V003012200019N001400199-00201-00201999999ADDGF100991999999999999999999MA1102801999999MW1101REMMET105METAR ZBAA 041330Z 12003MPS 090V150 1400 R01/0900N R36R/1200N R36L/1000V1400U BR NSC M02/M02 Q1028 NOSIG=
0159545110999992017010414004+40080+116585FM-15+003599999V0201101V003012200019N001400199-00201-00201999999ADDGF100991999999999999999999MA1102801999999MW1101REMMET100METAR ZBAA 041400Z 11003MPS 080V150 1400 R01/1300N R36R/1500N R36L/1400N BR NSC M02/M02 Q1028 NOSIG=
0169545110999992017010414304+40080+116585FM-15+003599999V0201201V002012200019N001400199-00101-00201999999ADDGF100991999999999999999999MA1102801999999MW1101REMMET110METAR ZBAA 041430Z 12002MPS 090V150 1400 R01/0900V1300D R36R/1200V1900N R36L/1500N BR NSC M01/M02 Q1028 NOSIG=
0144545110999992017010415004+39933+116283FM-12+005599999V0200901N00201000601CN000300199-00261-00331102921ADDGA1999+000751999GE19MSL   +99999+99999GF109991999999000751999999MD1210161+9999MW1461REMSYN04854511 31103 90902 11026 21033 40292 52016 746//=
0161545110999992017010415004+40080+116585FM-15+003599999V0201201N003012200019N001400199-00101-00201999999ADDGF100991999999999999999999MA1102901999999MW1101REMMET102METAR ZBAA 041500Z 12003MPS 1400 R01/0900N R36R/1000V1500U R36L/1000V1800U BR NSC M01/M02 Q1029 NOSIG=
0164545110999992017010415304+40080+116585FM-15+003599999V0201401V002012200019N001400199-00101-00101999999ADDGF100991999999999999999999MA1102901999999MW1101REMMET105METAR ZBAA 041530Z 14002MPS 100V170 1400 R01/1000N R36R/1000V1600D R36L/1600D BR NSC M01/M01 Q1029 NOSIG=
0159545110999992017010416004+40080+116585FM-15+003599999V0201101V003012200019N001400199-00101-00101999999ADDGF100991999999999999999999MA1102901999999MW1101REMMET100METAR ZBAA 041600Z 11003MPS 060V140 1400 R01/1000N R36R/1200N R36L/1400N BR NSC M01/M01 Q1029 NOSIG=
0159545110999992017010416304+40080+116585FM-15+003599999V0201301V003012200019N001600199-00101-00101999999ADDGF100991999999999999999999MA1102901999999MW1101REMMET100METAR ZBAA 041630Z 13003MPS 100V170 1600 R01/1400U R36R/1700N R36L/1500U BR NSC M01/M01 Q1029 NOSIG=
0119545110999992017010417004+40080+116585FM-15+003599999V0209999V001012200019N002000199-00101-00101999999ADDGF100991999999999999999999MA1102901999999MW1101REMMET060METAR ZBAA 041700Z VRB01MPS 2000 BR NSC M01/M01 Q1029 NOSIG=
0119545110999992017010417304+40080+116585FM-15+003599999V0209999V001012200019N002000199+00001-00101999999ADDGF100991999999999999999999MA1102901999999MW1101REMMET060METAR ZBAA 041730Z VRB01MPS 2000 BR NSC M00/M01 Q1029 NOSIG=
0089545110999992017010418004+39800+116470FM-12+003199999V0200201N0010199999999000800199-00101-00191102961ADDAA106999999AA224999999AY141061AY201061MA1999999102551MD1210051+9999MW1281REMSYN004BUFR
0119545110999992017010418004+40080+116585FM-15+003599999V0209999V001012200019N003200199+00001-00101999999ADDGF100991999999999999999999MA1102901999999MW1101REMMET060METAR ZBAA 041800Z VRB01MPS 3200 BR NSC M00/M01 Q1029 NOSIG=
0119545110999992017010418304+40080+116585FM-15+003599999V0203601N001012200019N003200199+00001-00101999999ADDGF100991999999999999999999MA1103001999999MW1101REMMET060METAR ZBAA 041830Z 36001MPS 3200 BR NSC M00/M01 Q1030 NOSIG=
0119545110999992017010419004+40080+116585FM-15+003599999V0203601N002012200019N002800199+00001-00101999999ADDGF100991999999999999999999MA1103001999999MW1101REMMET060METAR ZBAA 041900Z 36002MPS 2800 BR NSC M00/M01 Q1030 NOSIG=
0119545110999992017010419304+40080+116585FM-15+003599999V0209999V001012200019N002000199+00001-00101999999ADDGF100991999999999999999999MA1103001999999MW1101REMMET060METAR ZBAA 041930Z VRB01MPS 2000 BR NSC M00/M01 Q1030 NOSIG=
0151545110999992017010420004+40080+116585FM-15+003599999V0200101N003012200019N001500199-00101-00201999999ADDGF100991999999999999999999MA1103001999999MW1101REMMET092METAR ZBAA 042000Z 01003MPS 1500 R01/1400N R36R/1700D R36L/1500N BR NSC M01/M02 Q1030 NOSIG=
0151545110999992017010420304+40080+116585FM-15+003599999V0200101N003012200019N001400199-00101-00201999999ADDGF100991999999999999999999MA1103001999999MW1101REMMET092METAR ZBAA 042030Z 01003MPS 1400 R01/1300N R36R/1400N R36L/1400N BR NSC M01/M02 Q1030 NOSIG=
0106545110999992017010421004+39933+116283FM-12+005599999V0200401N00201002401CN000700199+00031-00131103011ADDGF109991999999999999999999MD1210051+9999MW1051REMSYN04854511 31/07 90402 10003 21013 40301 52005 705//=
0151545110999992017010421004+40080+116585FM-15+003599999V0203601N003012200019N001200199-00101-00201999999ADDGF100991999999999999999999MA1103001999999MW1101REMMET092METAR ZBAA 042100Z 36003MPS 1200 R01/1200N R36R/1300N R36L/1400N BR NSC M01/M02 Q1030 NOSIG=
0151545110999992017010421304+40080+116585FM-15+003599999V0203601N003012200019N001300199-00101-00101999999ADDGF100991999999999999999999MA1103001999999MW1101REMMET092METAR ZBAA 042130Z 36003MPS 1300 R01/1200N R36R/1500N R36L/1500N BR NSC M01/M01 Q1030 NOSIG=
0163545110999992017010422004+40080+116585FM-15+003599999V0203501N003012200019N001300199-00101-00101999999ADDGF100991999999999999999999MA1103001999999MW1101REMMET104METAR ZBAA 042200Z 35003MPS 1300 R01/1300N R36R/1500N R36L/1600N BR NSC M01/M01 Q1030 BECMG TL2240 1500=
0151545110999992017010422304+40080+116585FM-15+003599999V0203501N004012200019N001300199-00101-00101999999ADDGF100991999999999999999999MA1103101999999MW1101REMMET092METAR ZBAA 042230Z 35004MPS 1300 R01/1600N R36R/1800N R36L/1700N BR NSC M01/M01 Q1031 NOSIG=
0119545110999992017010423004+40080+116585FM-15+003599999V0203601N004012200019N001600199-00101-00201999999ADDGF100991999999999999999999MA1103101999999MW1101REMMET060METAR ZBAA 042300Z 36004MPS 1600 BR NSC M01/M02 Q1031 NOSIG=
0119545110999992017010423304+40080+116585FM-15+003599999V0203601N003012200019N001800199-00101-00201999999ADDGF100991999999999999999999MA1103101999999MW1101REMMET060METAR ZBAA 042330Z 36003MPS 1800 BR NSC M01/M02 Q1031 NOSIG=
0169545110999992017010500004+39800+116470FM-12+003199999V0200201N0030101750199000600199+00021-00151103191ADDAA106999999AA224999999GA1081+017501101GA2999+999999101GA3999+999999101GE19MSL   +99999+99999GF108991081999017501999999MA1999999102771MD1210171+0501MW1051REMSYN004BUFR
0127545110999992017010500004+40080+116585FM-15+003599999V0203601V002012200019N001600199-00101-00301999999ADDGF100991999999999999999999MA1103201999999MW1101REMMET068METAR ZBAA 050000Z 36002MPS 320V020 1600 BR NSC M01/M03 Q1032 NOSIG=
0119545110999992017010500304+40080+116585FM-15+003599999V0203601N003012200019N001600199+00001-00301999999ADDGF100991999999999999999999MA1103201999999MW1101REMMET060METAR ZBAA 050030Z 36003MPS 1600 BR NSC M00/M03 Q1032 NOSIG=
0119545110999992017010501004+40080+116585FM-15+003599999V0200101N002012200019N001600199+00001-00301999999ADDGF100991999999999999999999MA1103201999999MW1101REMMET060METAR ZBAA 050100Z 01002MPS 1600 BR NSC M00/M03 Q1032 NOSIG=
0118545110999992017010501304+40080+116585FM-15+003599999V0203501N003012200019N001600199+00001-00301999999ADDGF100991999999999999999999MA1103301999999MW1101REMMET059METAR ZBAA 050130Z 35003MPS 1600 BR NSC 00/M03 Q1033 NOSIG=
0126545110999992017010502004+40080+116585FM-15+003599999V0203401V004012200019N001600199+00001-00301999999ADDGF100991999999999999999999MA1103301999999MW1101REMMET067METAR ZBAA 050200Z 34004MPS 300V360 1600 BR NSC 00/M03 Q1033 NOSIG=
0160545110999992017010502304+40080+116585FM-15+003599999V0203601N003012200019N001600199+00001-00301999999ADDGF100991999999999999999999MA1103301999999MW1101MW2711REMMET095METAR ZBAA 050230Z 36003MPS 1600 R01/1300N R36R/1400N R36L/1500N -SN BR NSC 00/M03 Q1033 NOSIG=
0166545110999992017010503004+39933+116283FM-12+005599999V0200701N002019999999N000900199+00181-00141103281ADDAY101021AY201021GA1071+017501999GE19MSL   +99999+99999GF107991071999017501999999MD1210091+9999MW1051REMSYN05454511 31709 70702 10018 21014 40328 52009 70500 87///=
0173545110999992017010503004+40080+116585FM-15+003599999V0203501V003012200019N001600199+00101-00201999999ADDGF100991999999999999999999MA1103301999999MW1101REMMET114METAR ZBAA 050300Z 35003MPS 310V010 1600 R01/1200N R36R/1300N R36L/1300N BR NSC 01/M02 Q1033 BECMG TL0420 1300 HZ=
0154545110999992017010503304+40080+116585FM-15+003599999V0203401N004012200019N001600199+00201-00301999999ADDGF100991999999999999999999MA1103201999999MW1051REMMET095METAR COR ZBAA 050330Z 34004MPS 1600 R01/1100N R36R/1200N R36L/1300N HZ NSC 02/M03 Q1032 NOSIG=
0165545110999992017010504004+40080+116585FM-15+003599999V0203501N004012200019N001600199+00201-00201999999ADDGF100991999999999999999999MA1103201999999MW1051REMMET106METAR ZBAA 050400Z 35004MPS 1600 R01/1200N R36R/1300N R36L/1300N HZ NSC 02/M02 Q1032 BECMG TL0420 1300 HZ=
0158545110999992017010504304+40080+116585FM-15+003599999V0203401V003012200019N001400199+00301-00201999999ADDGF100991999999999999999999MA1103101999999MW1051REMMET099METAR ZBAA 050430Z 34003MPS 320V020 1400 R01/1100N R36R/1200N R36L/1300N HZ NSC 03/M02 Q1031 NOSIG=
0158545110999992017010505004+40080+116585FM-15+003599999V0203201V003012200019N001400199+00301-00301999999ADDGF100991999999999999999999MA1103101999999MW1051REMMET099METAR ZBAA 050500Z 32003MPS 290V350 1400 R01/1200N R36R/1300N R36L/1300N HZ NSC 03/M03 Q1031 NOSIG=
0150545110999992017010505304+40080+116585FM-15+003599999V0203301N002012200019N001400199+00301-00301999999ADDGF100991999999999999999999MA1103001999999MW1051REMMET091METAR ZBAA 050530Z 33002MPS 1400 R01/1300N R36R/1400N R36L/1400N HZ NSC 03/M03 Q1030 NOSIG=
0198545110999992017010506004+39800+116470FM-12+003199999V0200701N0020101250199001900199+00361-00511103021ADDAA106999999AA224999999AY101061AY201061GA1081+012501101GA2999+999999101GA3999+999999101GE19MSL   +99999+99999GF108991081999012501999999KA1240N-00281MA1999999102611MD1710251+9999MW1051REMSYN004BUFR
0170545110999992017010506004+40080+116585FM-15+003599999V0203501V002012200019N001400199+00301-00301999999ADDGF100991999999999999999999MA1103001999999MW1051REMMET111METAR ZBAA 050600Z 35002MPS 310V020 1400 R01/1600N R36R/1700U R36L/1700U HZ NSC 03/M03 Q1030 BECMG TL0640 1500=
0126545110999992017010506304+40080+116585FM-15+003599999V0203401V003012200019N001700199+00401-00401999999ADDGF100991999999999999999999MA1103001999999MW1051REMMET067METAR ZBAA 050630Z 34003MPS 290V020 1700 HZ NSC 04/M04 Q1030 NOSIG=
0118545110999992017010507004+40080+116585FM-15+003599999V0209999V001012200019N002200199+00301-00401999999ADDGF100991999999999999999999MA1103001999999MW1051REMMET059METAR ZBAA 050700Z VRB01MPS 2200 HZ NSC 03/M04 Q1030 NOSIG=
0118545110999992017010507304+40080+116585FM-15+003599999V0209999V001012200019N002500199+00401-00501999999ADDGF100991999999999999999999MA1103001999999MW1051REMMET059METAR ZBAA 050730Z VRB01MPS 2500 HZ NSC 04/M05 Q1030 NOSIG=
0130545110999992017010508004+40080+116585FM-15+003599999V0209999V001012200019N002800199+00301-00501999999ADDGF100991999999999999999999MA1103001999999MW1051REMMET071METAR ZBAA 050800Z VRB01MPS 2800 HZ NSC 03/M05 Q1030 BECMG TL0820 3000=
0118545110999992017010508304+40080+116585FM-15+003599999V0200301N001012200019N003500199+00301-00501999999ADDGF100991999999999999999999MA1103001999999MW1051REMMET059METAR ZBAA 050830Z 03001MPS 3500 HZ NSC 03/M05 Q1030 NOSIG=
0166545110999992017010509004+39933+116283FM-12+005599999V0200401N001019999999N001600199+00321-00451103041ADDAY101021AY201021GA1071+999999999GE19MSL   +99999+99999GF107991071999999999999999MD1210021+9999MW1051REMSYN05454511 31916 70401 10032 21045 40304 52002 70500 87///=
0118545110999992017010509004+40080+116585FM-15+003599999V0209999C000012200019N003500199+00301-00501999999ADDGF100991999999999999999999MA1103001999999MW1051REMMET059METAR ZBAA 050900Z 00000MPS 3500 HZ NSC 03/M05 Q1030 NOSIG=
0118545110999992017010509304+40080+116585FM-15+003599999V0209999V001012200019N003500199+00301-00401999999ADDGF100991999999999999999999MA1103001999999MW1051REMMET059METAR ZBAA 050930Z VRB01MPS 3500 HZ NSC 03/M04 Q1030 NOSIG=
0126545110999992017010510004+40080+116585FM-15+003599999V0203101V002012200019N004500199+00301-00401999999ADDGF100991999999999999999999MA1103101999999MW1051REMMET067METAR ZBAA 051000Z 31002MPS 270V340 4500 HZ NSC 03/M04 Q1031 NOSIG=
0126545110999992017010510304+40080+116585FM-15+003599999V0202901V002012200019N005000199+00301-00501999999ADDGF100991999999999999999999MA1103101999999MW1051REMMET067METAR ZBAA 051030Z 29002MPS 260V340 5000 HZ NSC 03/M05 Q1031 NOSIG=
0118545110999992017010511004+40080+116585FM-15+003599999V0209999C000012200019N005000199+00001-00601999999ADDGF100991999999999999999999MA1103101999999MW1051REMMET059METAR ZBAA 051100Z 00000MPS 5000 HZ NSC 00/M06 Q1031 NOSIG=
0119545110999992017010511304+40080+116585FM-15+003599999V0209999V001012200019N005000199-00101-00501999999ADDGF100991999999999999999999MA1103101999999MW1051REMMET060METAR ZBAA 051130Z VRB01MPS 5000 HZ NSC M01/M05 Q1031 NOSIG=
0185545110999992017010512004+39800+116470FM-12+003199999V0200701N0010102600199001300199+00101-00441103071ADDAA106999999AA224999999AY101061AY201061GA1061+026001101GA2999+999999101GA3999+999999101GE19MSL   +99999+99999GF106991061999026001999999MA1999999102661MD1210031+9999MW1051REMSYN004BUFR
0119545110999992017010512004+40080+116585FM-15+003599999V0209999V001012200019N005000199-00201-00501999999ADDGF100991999999999999999999MA1103001999999MW1051REMMET060METAR ZBAA 051200Z VRB01MPS 5000 HZ NSC M02/M05 Q1030 NOSIG=
0119545110999992017010512304+40080+116585FM-15+003599999V0209999C000012200019N005000199-00201-00501999999ADDGF100991999999999999999999MA1103001999999MW1101REMMET060METAR ZBAA 051230Z 00000MPS 5000 BR NSC M02/M05 Q1030 NOSIG=
0119545110999992017010513004+40080+116585FM-15+003599999V0209999C000012200019N005000199-00201-00501999999ADDGF100991999999999999999999MA1103001999999MW1101REMMET060METAR ZBAA 051300Z 00000MPS 5000 BR NSC M02/M05 Q1030 NOSIG=
0119545110999992017010513304+40080+116585FM-15+003599999V0209999C000012200019N005000199-00301-00601999999ADDGF100991999999999999999999MA1103001999999MW1101REMMET060METAR ZBAA 051330Z 00000MPS 5000 BR NSC M03/M06 Q1030 NOSIG=
0119545110999992017010514004+40080+116585FM-15+003599999V0209999C000012200019N004500199-00301-00501999999ADDGF100991999999999999999999MA1103001999999MW1101REMMET060METAR ZBAA 051400Z 00000MPS 4500 BR NSC M03/M05 Q1030 NOSIG=
0128545110999992017010515004+39933+116283FM-12+005599999V0201801N00101002401CN001100199-00241-00461103071ADDGE19MSL   +99999+99999GF109991999999999999999999MD1710011+9999MW1051REMSYN04854511 31911 91801 11024 21046 40307 57001 705//=
0119545110999992017010515304+40080+116585FM-15+003599999V0209999C000012200019N003500199-00401-00601999999ADDGF100991999999999999999999MA1103001999999MW1101REMMET060METAR ZBAA 051530Z 00000MPS 3500 BR NSC M04/M06 Q1030 NOSIG=
0119545110999992017010516004+40080+116585FM-15+003599999V0209999C000012200019N003500199-00401-00601999999ADDGF100991999999999999999999MA1103001999999MW1101REMMET060METAR ZBAA 051600Z 00000MPS 3500 BR NSC M04/M06 Q1030 NOSIG=
0119545110999992017010516304+40080+116585FM-15+003599999V0209999C000012200019N002500199-00301-00501999999ADDGF100991999999999999999999MA1103001999999MW1101REMMET060METAR ZBAA 051630Z 00000MPS 2500 BR NSC M03/M05 Q1030 NOSIG=
0153545110999992017010517004+40080+116585FM-15+003599999V0209999V001012200019N002500199-00501-00701999999ADDGF100991999999999999999999MA1102901999999MW1101REMMET094METAR ZBAA 051700Z VRB01MPS 2500 R01/1400N R36R/P2000N R36L/P2000D BR NSC M05/M07 Q1029 NOSIG=
0119545110999992017010517304+40080+116585FM-15+003599999V0200801N001012200019N002000199-00601-00701999999ADDGF100991999999999999999999MA1102901999999MW1101REMMET060METAR ZBAA 051730Z 08001MPS 2000 BR NSC M06/M07 Q1029 NOSIG=
0089545110999992017010518004+39800+116470FM-12+003199999V0200901N0010199999999001400199-00351-00611102971ADDAA106999999AA224999999AY101061AY201061MA1999999102551MD1710101+9999MW1051REMSYN004BUFR
0119545110999992017010518004+40080+116585FM-15+003599999V0209999C000012200019N002000199-00501-00601999999ADDGF100991999999999999999999MA1102901999999MW1101REMMET060METAR ZBAA 051800Z 00000MPS 2000 BR NSC M05/M06 Q1029 NOSIG=
0119545110999992017010518304+40080+116585FM-15+003599999V0209999C000012200019N002000199-00501-00601999999ADDGF100991999999999999999999MA1102901999999MW1101REMMET060METAR ZBAA 051830Z 00000MPS 2000 BR NSC M05/M06 Q1029 NOSIG=
0119545110999992017010519004+40080+116585FM-15+003599999V0209999C000012200019N002000199-00501-00601999999ADDGF100991999999999999999999MA1102901999999MW1101REMMET060METAR ZBAA 051900Z 00000MPS 2000 BR NSC M05/M06 Q1029 NOSIG=
0119545110999992017010519304+40080+116585FM-15+003599999V0209999C000012200019N002000199-00501-00701999999ADDGF100991999999999999999999MA1102901999999MW1101REMMET060METAR ZBAA 051930Z 00000MPS 2000 BR NSC M05/M07 Q1029 NOSIG=
0119545110999992017010520004+40080+116585FM-15+003599999V0209999V001012200019N002000199-00501-00601999999ADDGF100991999999999999999999MA1102901999999MW1101REMMET060METAR ZBAA 052000Z VRB01MPS 2000 BR NSC M05/M06 Q1029 NOSIG=
0119545110999992017010520304+40080+116585FM-15+003599999V0209999C000012200019N002000199-00401-00601999999ADDGF100991999999999999999999MA1102901999999MW1101REMMET060METAR ZBAA 052030Z 00000MPS 2000 BR NSC M04/M06 Q1029 NOSIG=
0144545110999992017010521004+39933+116283FM-12+005599999V0209999C99999002401CN001200199-00431-00631102871ADDGA1999+008001999GE19MSL   +99999+99999GF109991999999008001999999MD1710101+9999MW1051REMSYN04854511 31512 90000 11043 21063 40287 57010 705//=
0119545110999992017010521004+40080+116585FM-15+003599999V0200201N001012200019N002000199-00501-00601999999ADDGF100991999999999999999999MA1102801999999MW1101REMMET060METAR ZBAA 052100Z 02001MPS 2000 BR NSC M05/M06 Q1028 NOSIG=
0119545110999992017010521304+40080+116585FM-15+003599999V0200101N001012200019N002000199-00501-00601999999ADDGF100991999999999999999999MA1102801999999MW1101REMMET060METAR ZBAA 052130Z 01001MPS 2000 BR NSC M05/M06 Q1028 NOSIG=
0119545110999992017010522004+40080+116585FM-15+003599999V0209999C000012200019N002000199-00501-00601999999ADDGF100991999999999999999999MA1102801999999MW1101REMMET060METAR ZBAA 052200Z 00000MPS 2000 BR NSC M05/M06 Q1028 NOSIG=
0119545110999992017010522304+40080+116585FM-15+003599999V0209999C000012200019N002000199-00601-00701999999ADDGF100991999999999999999999MA1102801999999MW1101REMMET060METAR ZBAA 052230Z 00000MPS 2000 BR NSC M06/M07 Q1028 NOSIG=
0119545110999992017010523004+40080+116585FM-15+003599999V0209999C000012200019N002000199-00501-00601999999ADDGF100991999999999999999999MA1102801999999MW1101REMMET060METAR ZBAA 052300Z 00000MPS 2000 BR NSC M05/M06 Q1028 NOSIG=
0119545110999992017010523304+40080+116585FM-15+003599999V0200601N001012200019N002000199-00501-00601999999ADDGF100991999999999999999999MA1102801999999MW1101REMMET060METAR ZBAA 052330Z 06001MPS 2000 BR NSC M05/M06 Q1028 NOSIG=
0169545110999992017010600004+39800+116470FM-12+003199999V0200901N0010102600199001100199-00371-00581102911ADDAA106999999AA224999999GA1071+026001101GA2999+999999101GA3999+999999101GE19MSL   +99999+99999GF107991071999026001999999MA1999999102491MD1210041-0301MW1051REMSYN004BUFR
0151545110999992017010600004+40080+116585FM-15+003599999V0209999V001012200019N001700199-00301-00501999999ADDGF100991999999999999999999MA1102901999999MW1101REMMET092METAR ZBAA 060000Z VRB01MPS 1700 R01/1200N R36R/1800D R36L/1900N BR NSC M03/M05 Q1029 NOSIG=
0152545110999992017010600304+40080+116585FM-15+003599999V0200401N001012200019N001700199-00201-00401999999ADDGF100991999999999999999999MA1102901999999MW1101REMMET093METAR ZBAA 060030Z 04001MPS 1700 R01/1100N R36R/1700N R36L/P2000N BR NSC M02/M04 Q1029 NOSIG=
0119545110999992017010601004+40080+116585FM-15+003599999V0209999V001012200019N001700199-00101-00401999999ADDGF100991999999999999999999MA1102901999999MW1101REMMET060METAR ZBAA 060100Z VRB01MPS 1700 BR NSC M01/M04 Q1029 NOSIG=
0151545110999992017010601304+40080+116585FM-15+003599999V0209999V001012200019N001700199+00001-00301999999ADDGF100991999999999999999999MA1102901999999MW1051REMMET092METAR ZBAA 060130Z VRB01MPS 1700 R01/1200N R36R/1600N R36L/2000D HZ NSC M00/M03 Q1029 NOSIG=
0150545110999992017010602004+40080+116585FM-15+003599999V0209999V001012200019N001700199+00101-00301999999ADDGF100991999999999999999999MA1102901999999MW1051REMMET091METAR ZBAA 060200Z VRB01MPS 1700 R01/1300N R36R/1700N R36L/1900N HZ NSC 01/M03 Q1029 NOSIG=
0151545110999992017010602304+40080+116585FM-15+003599999V0209999V001012200019N002000199+00101-00401999999ADDGF100991999999999999999999MA1102901999999MW1051REMMET092METAR ZBAA 060230Z VRB01MPS 2000 R01/1400N R36R/1600N R36L/P2000N HZ NSC 01/M04 Q1029 NOSIG=
0166545110999992017010603004+39933+116283FM-12+005599999V0202201N001019999999N002000199+00271-00591102891ADDAY101021AY201021GA1061+999999999GE19MSL   +99999+99999GF106991061999999999999999MD1710011+9999MW1051REMSYN05454511 31920 62201 10027 21059 40289 57001 70500 86///=
0151545110999992017010603004+40080+116585FM-15+003599999V0209999V001012200019N002000199+00201-00401999999ADDGF100991999999999999999999MA1102901999999MW1051REMMET092METAR ZBAA 060300Z VRB01MPS 2000 R01/1400N R36R/1600N R36L/P2000N HZ NSC 02/M04 Q1029 NOSIG=
0126545110999992017010603304+40080+116585FM-15+003599999V0200101V002012200019N002500199+00301-00401999999ADDGF100991999999999999999999MA1102801999999MW1051REMMET067METAR ZBAA 060330Z 01002MPS 320V070 2500 HZ NSC 03/M04 Q1028 NOSIG=
0138545110999992017010604004+40080+116585FM-15+003599999V0203401V002012200019N002500199+00401-00401999999ADDGF100991999999999999999999MA1102801999999MW1051REMMET079METAR ZBAA 060400Z 34002MPS 300V360 2500 HZ NSC 04/M04 Q1028 BECMG TL0540 3000=
0126545110999992017010604304+40080+116585FM-15+003599999V0203401V002012200019N002500199+00401-00401999999ADDGF100991999999999999999999MA1102701999999MW1051REMMET067METAR ZBAA 060430Z 34002MPS 300V360 2500 HZ NSC 04/M04 Q1027 NOSIG=
0138545110999992017010605004+40080+116585FM-15+003599999V0203601V002012200019N002800199+00501-00401999999ADDGF100991999999999999999999MA1102601999999MW1051REMMET079METAR ZBAA 060500Z 36002MPS 310V050 2800 HZ NSC 05/M04 Q1026 BECMG TL0520 3000=
0126545110999992017010605304+40080+116585FM-15+003599999V0203201V002012200019N003000199+00401-00401999999ADDGF100991999999999999999999MA1102601999999MW1051REMMET067METAR ZBAA 060530Z 32002MPS 280V350 3000 HZ NSC 04/M04 Q1026 NOSIG=
0198545110999992017010606004+39800+116470FM-12+003199999V0202701N0010102600199002800199+00521-00401102551ADDAA106999999AA224999999AY101061AY201061GA1071+026001101GA2999+999999101GA3999+999999101GE19MSL   +99999+99999GF107991071999026001999999KA1240N-00461MA1999999102141MD1710341+9999MW1051REMSYN004BUFR
0126545110999992017010606004+40080+116585FM-15+003599999V0203201V002012200019N003000199+00501-00401999999ADDGF100991999999999999999999MA1102501999999MW1051REMMET067METAR ZBAA 060600Z 32002MPS 250V020 3000 HZ NSC 05/M04 Q1025 NOSIG=
0126545110999992017010606304+40080+116585FM-15+003599999V0203001V002012200019N003000199+00501-00401999999ADDGF100991999999999999999999MA1102501999999MW1051REMMET067METAR ZBAA 060630Z 30002MPS 210V360 3000 HZ NSC 05/M04 Q1025 NOSIG=
0126545110999992017010607004+40080+116585FM-15+003599999V0203501V002012200019N003000199+00401-00401999999ADDGF100991999999999999999999MA1102501999999MW1051REMMET067METAR ZBAA 060700Z 35002MPS 270V050 3000 HZ NSC 04/M04 Q1025 NOSIG=
0118545110999992017010607304+40080+116585FM-15+003599999V0209999V001012200019N003000199+00401-00401999999ADDGF100991999999999999999999MA1102501999999MW1051REMMET059METAR ZBAA 060730Z VRB01MPS 3000 HZ NSC 04/M04 Q1025 NOSIG=
0137545110999992017010608004+40080+116585FM-15+003599999V0209999V001012200019N003000199+00401-00401999999ADDGF100991999999999999999999MA1102501999999MW1051REMMET078METAR ZBAA 060800Z VRB01MPS 3000 HZ NSC 04/M04 Q1025 BECMG TL0940 2500 RMK HZ=
0118545110999992017010608304+40080+116585FM-15+003599999V0209999V001012200019N003000199+00301-00401999999ADDGF100991999999999999999999MA1102501999999MW1051REMMET059METAR ZBAA 060830Z VRB01MPS 3000 HZ NSC 03/M04 Q1025 NOSIG=
0166545110999992017010609004+39933+116283FM-12+005599999V0202201N001019999999N002000199+00341-00381102511ADDAY101021AY201021GA1061+999999999GE19MSL   +99999+99999GF106991061999999999999999MD1710041+9999MW1051REMSYN05454511 31920 62201 10034 21038 40251 57004 70500 86///=
0137545110999992017010609004+40080+116585FM-15+003599999V0201401N001012200019N003000199+00001-00501999999ADDGF100991999999999999999999MA1102501999999MW1051REMMET078METAR ZBAA 060900Z 14001MPS 3000 HZ NSC 00/M05 Q1025 BECMG TL0940 2500 RMK HZ=
0118545110999992017010609304+40080+116585FM-15+003599999V0209999V001012200019N002500199+00101-00401999999ADDGF100991999999999999999999MA1102501999999MW1051REMMET059METAR ZBAA 060930Z VRB01MPS 2500 HZ NSC 01/M04 Q1025 NOSIG=
0119545110999992017010610004+40080+116585FM-15+003599999V0201401N001012200019N002900199-00201-00501999999ADDGF100991999999999999999999MA1102501999999MW1051REMMET060METAR ZBAA 061000Z 14001MPS 2900 HZ NSC M02/M05 Q1025 NOSIG=
0119545110999992017010610304+40080+116585FM-15+003599999V0200701N001012200019N002800199-00201-00501999999ADDGF100991999999999999999999MA1102501999999MW1051REMMET060METAR ZBAA 061030Z 07001MPS 2800 HZ NSC M02/M05 Q1025 NOSIG=
0119545110999992017010611004+40080+116585FM-15+003599999V0209999C000012200019N002800199-00301-00601999999ADDGF100991999999999999999999MA1102501999999MW1051REMMET060METAR ZBAA 061100Z 00000MPS 2800 HZ NSC M03/M06 Q1025 NOSIG=
0119545110999992017010611304+40080+116585FM-15+003599999V0209999C000012200019N002800199-00101-00401999999ADDGF100991999999999999999999MA1102501999999MW1051REMMET060METAR ZBAA 061130Z 00000MPS 2800 HZ NSC M01/M04 Q1025 NOSIG=
0185545110999992017010612004+39800+116470FM-12+003199999V0202201N0010102600199001400199+00251-00231102581ADDAA106999999AA224999999AY101061AY201061GA1071+026001101GA2999+999999101GA3999+999999101GE19MSL   +99999+99999GF107991071999026001999999MA1999999102171MD1210071+9999MW1051REMSYN004BUFR
0131545110999992017010612004+40080+116585FM-15+003599999V0200701N001012200019N002800199-00301-00501999999ADDGF100991999999999999999999MA1102501999999MW1051REMMET072METAR ZBAA 061200Z 07001MPS 2800 HZ NSC M03/M05 Q1025 BECMG TL1340 3500=
0119545110999992017010612304+40080+116585FM-15+003599999V0201101N001012200019N002800199-00101-00301999999ADDGF100991999999999999999999MA1102601999999MW1051REMMET060METAR ZBAA 061230Z 11001MPS 2800 HZ NSC M01/M03 Q1026 NOSIG=
0131545110999992017010613004+40080+116585FM-15+003599999V0200801N001012200019N002800199-00101-00401999999ADDGF100991999999999999999999MA1102501999999MW1051REMMET072METAR ZBAA 061300Z 08001MPS 2800 HZ NSC M01/M04 Q1025 BECMG TL1340 3500=
0119545110999992017010613304+40080+116585FM-15+003599999V0200701N001012200019N003000199-00101-00401999999ADDGF100991999999999999999999MA1102501999999MW1051REMMET060METAR ZBAA 061330Z 07001MPS 3000 HZ NSC M01/M04 Q1025 NOSIG=
0119545110999992017010614004+40080+116585FM-15+003599999V0200901N001012200019N003000199-00101-00301999999ADDGF100991999999999999999999MA1102501999999MW1051REMMET060METAR ZBAA 061400Z 09001MPS 3000 HZ NSC M01/M03 Q1025 NOSIG=
0119545110999992017010614304+40080+116585FM-15+003599999V0209999C000012200019N003000199+00001-00401999999ADDGF100991999999999999999999MA1102501999999MW1051REMMET060METAR ZBAA 061430Z 00000MPS 3000 HZ NSC M00/M04 Q1025 NOSIG=
0144545110999992017010615004+39933+116283FM-12+005599999V0200401N00101002401CN001300199+00191-00211102521ADDGA1999+022501999GE19MSL   +99999+99999GF109991999999022501999999MD1710061+9999MW1051REMSYN04854511 31813 90401 10019 21021 40252 57006 705//=
0119545110999992017010615004+40080+116585FM-15+003599999V0200601N001012200019N002800199+00001-00301999999ADDGF100991999999999999999999MA1102501999999MW1051REMMET060METAR ZBAA 061500Z 06001MPS 2800 HZ NSC M00/M03 Q1025 NOSIG=
0119545110999992017010615304+40080+116585FM-15+003599999V0200101N001012200019N002800199+00001-00301999999ADDGF100991999999999999999999MA1102501999999MW1051REMMET060METAR ZBAA 061530Z 01001MPS 2800 HZ NSC M00/M03 Q1025 NOSIG=
0118545110999992017010616004+40080+116585FM-15+003599999V0200101N001012200019N002800199+00001-00301999999ADDGF100991999999999999999999MA1102501999999MW1051REMMET059METAR ZBAA 061600Z 01001MPS 2800 HZ NSC 00/M03 Q1025 NOSIG=
0119545110999992017010616304+40080+116585FM-15+003599999V0200201N001012200019N002800199+00001-00401999999ADDGF100991999999999999999999MA1102401999999MW1051REMMET060METAR ZBAA 061630Z 02001MPS 2800 HZ NSC M00/M04 Q1024 NOSIG=
0119545110999992017010617004+40080+116585FM-15+003599999V0201001N001012200019N002800199+00001-00301999999ADDGF100991999999999999999999MA1102401999999MW1051REMMET060METAR ZBAA 061700Z 10001MPS 2800 HZ NSC M00/M03 Q1024 NOSIG=
0118545110999992017010617304+40080+116585FM-15+003599999V0201001N001012200019N002800199+00001-00401999999ADDGF100991999999999999999999MA1102401999999MW1051REMMET059METAR ZBAA 061730Z 10001MPS 2800 HZ NSC 00/M04 Q1024 NOSIG=
0089545110999992017010618004+39800+116470FM-12+003199999V0200401N0010199999999001300199+00171-00211102471ADDAA106999999AA224999999AY101061AY201061MA1999999102061MD1710051+9999MW1051REMSYN004BUFR
0118545110999992017010618004+40080+116585FM-15+003599999V0209999V001012200019N003000199+00001-00401999999ADDGF100991999999999999999999MA1102401999999MW1051REMMET059METAR ZBAA 061800Z VRB01MPS 3000 HZ NSC 00/M04 Q1024 NOSIG=
0118545110999992017010618304+40080+116585FM-15+003599999V0209999V001012200019N003000199+00001-00401999999ADDGF100991999999999999999999MA1102501999999MW1051REMMET059METAR ZBAA 061830Z VRB01MPS 3000 HZ NSC 00/M04 Q1025 NOSIG=
0119545110999992017010619004+40080+116585FM-15+003599999V0201501N001012200019N003000199+00001-00401999999ADDGF100991999999999999999999MA1102401999999MW1051REMMET060METAR ZBAA 061900Z 15001MPS 3000 HZ NSC M00/M04 Q1024 NOSIG=
0119545110999992017010619304+40080+116585FM-15+003599999V0209999V001012200019N002800199-00101-00301999999ADDGF100991999999999999999999MA1102401999999MW1051REMMET060METAR ZBAA 061930Z VRB01MPS 2800 HZ NSC M01/M03 Q1024 NOSIG=
0119545110999992017010620004+40080+116585FM-15+003599999V0209999V001012200019N002800199-00101-00401999999ADDGF100991999999999999999999MA1102401999999MW1051REMMET060METAR ZBAA 062000Z VRB01MPS 2800 HZ NSC M01/M04 Q1024 NOSIG=
0119545110999992017010620304+40080+116585FM-15+003599999V0209999V001012200019N002800199-00101-00301999999ADDGF100991999999999999999999MA1102401999999MW1051REMMET060METAR ZBAA 062030Z VRB01MPS 2800 HZ NSC M01/M03 Q1024 NOSIG=
0144545110999992017010621004+39933+116283FM-12+005599999V0200401N00101002401CN001400199+00161-00331102391ADDGA1999+022501999GE19MSL   +99999+99999GF109991999999022501999999MD1710081+9999MW1051REMSYN04854511 31814 90401 10016 21033 40239 57008 705//=
0119545110999992017010621004+40080+116585FM-15+003599999V0200501N001012200019N002800199-00101-00301999999ADDGF100991999999999999999999MA1102401999999MW1051REMMET060METAR ZBAA 062100Z 05001MPS 2800 HZ NSC M01/M03 Q1024 NOSIG=
0119545110999992017010621304+40080+116585FM-15+003599999V0203601N001012200019N002800199-00101-00301999999ADDGF100991999999999999999999MA1102401999999MW1051REMMET060METAR ZBAA 062130Z 36001MPS 2800 HZ NSC M01/M03 Q1024 NOSIG=
0119545110999992017010622004+40080+116585FM-15+003599999V0203401N001012200019N002800199-00101-00301999999ADDGF100991999999999999999999MA1102401999999MW1051REMMET060METAR ZBAA 062200Z 34001MPS 2800 HZ NSC M01/M03 Q1024 NOSIG=
0119545110999992017010622304+40080+116585FM-15+003599999V0209999V001012200019N003300199+00001-00301999999ADDGF100991999999999999999999MA1102401999999MW1051REMMET060METAR ZBAA 062230Z VRB01MPS 3300 HZ NSC M00/M03 Q1024 NOSIG=
0119545110999992017010623004+40080+116585FM-15+003599999V0201001N001012200019N003000199+00001-00301999999ADDGF100991999999999999999999MA1102401999999MW1051REMMET060METAR ZBAA 062300Z 10001MPS 3000 HZ NSC M00/M03 Q1024 NOSIG=
0119545110999992017010623304+40080+116585FM-15+003599999V0201201N001012200019N003000199+00001-00301999999ADDGF100991999999999999999999MA1102401999999MW1051REMMET060METAR ZBAA 062330Z 12001MPS 3000 HZ NSC M00/M03 Q1024 NOSIG=
0181545110999992017010700004+39800+116470FM-12+003199999V0200401N0010101750199001400199+00171-00351102441ADDAA106999999AA224999999GA1081+017501101GA2999+999999101GA3999+999999101GE19MSL   +99999+99999GF108991081999017501999999IA2999-00099MA1999999102031MD1210051-0501MW1051REMSYN004BUFR
0127545110999992017010700004+40080+116585FM-15+003599999V0200601V002012200019N002500199+00001-00301999999ADDGF100991999999999999999999MA1102401999999MW1051REMMET068METAR ZBAA 070000Z 06002MPS 030V090 2500 HZ NSC M00/M03 Q1024 NOSIG=
0118545110999992017010700304+40080+116585FM-15+003599999V0200601N002012200019N002500199+00001-00401999999ADDGF100991999999999999999999MA1102501999999MW1051REMMET059METAR ZBAA 070030Z 06002MPS 2500 HZ NSC 00/M04 Q1025 NOSIG=
0118545110999992017010701004+40080+116585FM-15+003599999V0200701N001012200019N002500199+00001-00401999999ADDGF100991999999999999999999MA1102501999999MW1051REMMET059METAR ZBAA 070100Z 07001MPS 2500 HZ NSC 00/M04 Q1025 NOSIG=
0118545110999992017010701304+40080+116585FM-15+003599999V0200401N001012200019N002500199+00101-00401999999ADDGF100991999999999999999999MA1102501999999MW1051REMMET059METAR ZBAA 070130Z 04001MPS 2500 HZ NSC 01/M04 Q1025 NOSIG=
0118545110999992017010702004+40080+116585FM-15+003599999V0200101N002012200019N002500199+00101-00401999999ADDGF100991999999999999999999MA1102501999999MW1051REMMET059METAR ZBAA 070200Z 01002MPS 2500 HZ NSC 01/M04 Q1025 NOSIG=
0136545110999992017010702304+40080+116585FM-15+003599999V0200301V002012200019N002500199+00101-00301999999ADDGF100991999999999999999999MA1102501999999MW1051MW2711REMMET071METAR ZBAA 070230Z 03002MPS 360V060 2500 -SN HZ NSC 01/M03 Q1025 NOSIG=
0166545110999992017010703004+39933+116283FM-12+005599999V0200401N002019999999N002100199+00371-00401102521ADDAY101021AY201021GA1081+012501999GE19MSL   +99999+99999GF108991081999012501999999MD1210081+9999MW1051REMSYN05454511 31621 80402 10037 21040 40252 52008 70500 88///=
0160545110999992017010703004+40080+116585FM-15+003599999V0209999V001012200019N002000199+00101-00201999999ADDGF100991999999999999999999MA1102501999999MW1051MW2711REMMET095METAR ZBAA 070300Z VRB01MPS 2000 R01/1300N R36R/1600N R36L/1900N -SN HZ NSC 01/M02 Q1025 NOSIG=
0160545110999992017010703304+40080+116585FM-15+003599999V0209999V001012200019N002000199+00101-00201999999ADDGF100991999999999999999999MA1102501999999MW1051MW2711REMMET095METAR ZBAA 070330Z VRB01MPS 2000 R01/1400N R36R/1800N R36L/1900N -SN HZ NSC 01/M02 Q1025 NOSIG=
0128545110999992017010704004+40080+116585FM-15+003599999V0203601N002012200019N002000199+00101-00101999999ADDGF100991999999999999999999MA1102401999999MW1101MW2711REMMET063METAR ZBAA 070400Z 36002MPS 2000 -SN BR NSC 01/M01 Q1024 NOSIG=
0160545110999992017010704304+40080+116585FM-15+003599999V0203601N003012200019N001700199+00101-00101999999ADDGF100991999999999999999999MA1102401999999MW1101MW2711REMMET095METAR ZBAA 070430Z 36003MPS 1700 R01/1400N R36R/1800N R36L/1800N -SN BR NSC 01/M01 Q1024 NOSIG=
0162545110999992017010705004+40080+116585FM-15+003599999V0200101N002012200019N001700199+00201+00001999999ADDGF100991999999999999999999MA1102301999999MW1101MW2681REMMET097METAR ZBAA 070500Z 01002MPS 1700 R01/1400N R36R/1600N R36L/P2000N -RASN BR NSC 02/00 Q1023 NOSIG=
0127545110999992017010705304+40080+116585FM-15+003599999V0200101N002012200019N002000199+00201+00001999999ADDGF100991999999999999999999MA1102301999999MW1101MW2611REMMET062METAR ZBAA 070530Z 01002MPS 2000 -RA BR NSC 02/00 Q1023 NOSIG=
0187545110999992017010706004+39800+116470FM-12+003199999V0200401N0030101750199001400199+00201+00011102331ADDAA106999999AY171061AY201061GA1081+017501101GA2999+999999101GA3999+999999101GE19MSL   +99999+99999GF108991081999017501999999KA1240N+00131MA1999999101921MD1710191+9999MW1681REMSYN004BUFR
0127545110999992017010706004+40080+116585FM-15+003599999V0209999V001012200019N002000199+00201+00101999999ADDGF100991999999999999999999MA1102301999999MW1101MW2611REMMET062METAR ZBAA 070600Z VRB01MPS 2000 -RA BR NSC 02/01 Q1023 NOSIG=
0127545110999992017010706304+40080+116585FM-15+003599999V0209999V001012200019N002000199+00201+00001999999ADDGF100991999999999999999999MA1102301999999MW1101MW2611REMMET062METAR ZBAA 070630Z VRB01MPS 2000 -RA BR NSC 02/00 Q1023 NOSIG=
0127545110999992017010707004+40080+116585FM-15+003599999V0209999V001012200019N002000199+00201+00001999999ADDGF100991999999999999999999MA1102301999999MW1101MW2611REMMET062METAR ZBAA 070700Z VRB01MPS 2000 -RA BR NSC 02/00 Q1023 NOSIG=
0127545110999992017010707304+40080+116585FM-15+003599999V0209999V001012200019N002000199+00101+00001999999ADDGF100991999999999999999999MA1102301999999MW1101MW2611REMMET062METAR ZBAA 070730Z VRB01MPS 2000 -RA BR NSC 01/00 Q1023 NOSIG=
0161545110999992017010708004+40080+116585FM-15+003599999V0201201N001012200019N002000199+00201+00101999999ADDGF100991999999999999999999MA1102301999999MW1101MW2611REMMET096METAR ZBAA 070800Z 12001MPS 2000 R01/1200N R36R/P2000N R36L/P2000N -RA BR NSC 02/01 Q1023 NOSIG=
0127545110999992017010708304+40080+116585FM-15+003599999V0201101N001012200019N002000199+00101+00101999999ADDGF100991999999999999999999MA1102401999999MW1101MW2611REMMET062METAR ZBAA 070830Z 11001MPS 2000 -RA BR NSC 01/01 Q1024 NOSIG=
0166545110999992017010709004+39933+116283FM-12+005599999V0200901N003019999999N001200199+00201+00041102381ADDAY171021AY201021GA1081+017501999GE19MSL   +99999+99999GF108991081999017501999999MD1210051+9999MW1051REMSYN05454511 41712 80903 10020 20004 40238 52005 70570 88///=
0175545110999992017010709004+40080+116585FM-15+003599999V0201201N001012200019N001800199+00101+00001999999ADDGF100991999999999999999999MA1102401999999MW1101MW2611REMMET110METAR ZBAA 070900Z 12001MPS 1800 R01/1300N R36R/2000D R36L/P2000N -RA BR NSC 01/00 Q1024 BECMG TL1010 1400 BR=
0127545110999992017010709304+40080+116585FM-15+003599999V0201401N002012200019N001800199+00101+00001999999ADDGF100991999999999999999999MA1102401999999MW1101MW2611REMMET062METAR ZBAA 070930Z 14002MPS 1800 -RA BR NSC 01/00 Q1024 NOSIG=
0166545110999992017010710004+40080+116585FM-15+003599999V0209999V001012200019N001800199+00101+00001999999ADDGF100991999999999999999999MA1102401999999MW1101REMMET107METAR ZBAA 071000Z VRB01MPS 1800 R01/1300N R36R/P2000N R36L/P2000N BR NSC 01/00 Q1024 BECMG TL1020 1400 BR=
0151545110999992017010710304+40080+116585FM-15+003599999V0209999V001012200019N001400199+00101+00001999999ADDGF100991999999999999999999MA1102401999999MW1101REMMET092METAR ZBAA 071030Z VRB01MPS 1400 R01/2000N R36R/P2000N R36L/P2000N BR NSC 01/00 Q1024 NOSIG=
0164545110999992017010711004+40080+116585FM-15+003599999V0209999C000012200019N001400199+00101+00001999999ADDGF100991999999999999999999MA1102401999999MW1101REMMET105METAR ZBAA 071100Z 00000MPS 1400 R01/1900D R36R/P2000U R36L/P2000N BR NSC 01/M00 Q1024 BECMG TL1140 1600=
0157545110999992017010711304+40080+116585FM-15+003599999V0209999V001012200019N001400199+00101+00001999999ADDGF100991999999999999999999MA1102401999999MW1101REMMET098METAR ZBAA 071130Z VRB01MPS 1400 R01/1100V1700D R36R/P2000U R36L/P2000N BR NSC 01/M00 Q1024 NOSIG=
0174545110999992017010712004+39800+116470FM-12+003199999V0200901N0010101750199000800199+00121-00031102471ADDAA106000231AY171061AY201061GA1071+017501101GA2999+999999101GA3999+999999101GE19MSL   +99999+99999GF107991071999017501999999MA1999999102061MD1210091+9999MW1051REMSYN004BUFR
0157545110999992017010712004+40080+116585FM-15+003599999V0209999V001012200019N001600199+00001+00001999999ADDGF100991999999999999999999MA1102401999999MW1101REMMET098METAR ZBAA 071200Z VRB01MPS 1600 R01/0800V1700N R36R/P2000D R36L/P2000N BR NSC 00/M00 Q1024 NOSIG=
0117545110999992017010712304+40080+116585FM-15+003599999V0209999V001012200019N001600199+00101+00001999999ADDGF100991999999999999999999MA1102401999999MW1101REMMET058METAR ZBAA 071230Z VRB01MPS 1600 BR NSC 01/00 Q1024 NOSIG=
0157545110999992017010713004+40080+116585FM-15+003599999V0209999V001012200019N001600199+00101+00001999999ADDGF100991999999999999999999MA1102401999999MW1101REMMET098METAR ZBAA 071300Z VRB01MPS 1600 R01/1000V1800U R36R/P2000N R36L/P2000N BR NSC 01/M00 Q1024 NOSIG=
0118545110999992017010713304+40080+116585FM-15+003599999V0209999V001012200019N001800199+00001+00001999999ADDGF100991999999999999999999MA1102401999999MW1101REMMET059METAR ZBAA 071330Z VRB01MPS 1800 BR NSC 00/M00 Q1024 NOSIG=
0118545110999992017010714004+40080+116585FM-15+003599999V0201601N001012200019N001800199+00001+00001999999ADDGF100991999999999999999999MA1102401999999MW1101REMMET059METAR ZBAA 071400Z 16001MPS 1800 BR NSC 00/M00 Q1024 NOSIG=
0118545110999992017010714304+40080+116585FM-15+003599999V0209999C000012200019N001800199+00001+00001999999ADDGF100991999999999999999999MA1102401999999MW1101REMMET059METAR ZBAA 071430Z 00000MPS 1800 BR NSC 00/M00 Q1024 NOSIG=
0106545110999992017010715004+39933+116283FM-12+005599999V0202201N00201002401CN000700199+00081-00071102471ADDGF109991999999999999999999MD1410001+9999MW1051REMSYN04854511 31/07 92202 10008 21007 40247 54000 705//=
0118545110999992017010715004+40080+116585FM-15+003599999V0209999V001012200019N001800199+00001+00001999999ADDGF100991999999999999999999MA1102401999999MW1101REMMET059METAR ZBAA 071500Z VRB01MPS 1800 BR NSC 00/M00 Q1024 NOSIG=
0155545110999992017010715304+40080+116585FM-15+003599999V0209999V001012200019N001800199+00001-00101999999ADDGF100991999999999999999999MA1102401999999MW1101REMMET096METAR ZBAA 071530Z VRB01MPS 1800 R01/1000V1600D R36R/1900N R36L/2000N BR NSC 00/M01 Q1024 NOSIG=
0118545110999992017010716004+40080+116585FM-15+003599999V0201501N001012200019N001800199+00101+00001999999ADDGF100991999999999999999999MA1102401999999MW1101REMMET059METAR ZBAA 071600Z 15001MPS 1800 BR NSC 01/M00 Q1024 NOSIG=
0126545110999992017010716304+40080+116585FM-15+003599999V0202701V002012200019N001800199+00101+00001999999ADDGF100991999999999999999999MA1102401999999MW1101REMMET067METAR ZBAA 071630Z 27002MPS 200V340 1800 BR NSC 01/M00 Q1024 NOSIG=
0126545110999992017010717004+40080+116585FM-15+003599999V0203101V004012200019N003000199+00201-00301999999ADDGF100991999999999999999999MA1102401999999MW1101REMMET067METAR ZBAA 071700Z 31004MPS 280V340 3000 BR NSC 02/M03 Q1024 NOSIG=
0099545110999992017010717304+40080+116585FM-15+003599999V0203101V004019999999Y999999999+00201-00501999999ADDMA1102301999999OC100901REMMET064METAR ZBAA 071730Z 31004G09MPS 280V340 CAVOK 02/M05 Q1023 NOSIG=
0089545110999992017010718004+39800+116470FM-12+003199999V0202201N0010199999999000500199-00041-00151102391ADDAA106999999AA224999999AY141061AY201061MA1999999101981MD1710081+9999MW1451REMSYN004BUFR
0080545110999992017010718004+40080+116585FM-15+003599999V0203501N003019999999Y999999999+00101-00301999999ADDMA1102301999999REMMET053METAR ZBAA 071800Z 35003MPS CAVOK 01/M03 Q1023 NOSIG=
0080545110999992017010718304+40080+116585FM-15+003599999V0203601N003019999999Y999999999+00001-00201999999ADDMA1102301999999REMMET053METAR ZBAA 071830Z 36003MPS CAVOK 00/M02 Q1023 NOSIG=
0080545110999992017010719004+40080+116585FM-15+003599999V0203401N003019999999Y999999999+00001-00301999999ADDMA1102301999999REMMET053METAR ZBAA 071900Z 34003MPS CAVOK 00/M03 Q1023 NOSIG=
0080545110999992017010719304+40080+116585FM-15+003599999V0203001N005019999999Y999999999+00201-00701999999ADDMA1102301999999REMMET053METAR ZBAA 071930Z 30005MPS CAVOK 02/M07 Q1023 NOSIG=
0080545110999992017010720004+40080+116585FM-15+003599999V0203001N005019999999Y999999999+00101-00801999999ADDMA1102301999999REMMET053METAR ZBAA 072000Z 30005MPS CAVOK 01/M08 Q1023 NOSIG=
0080545110999992017010720304+40080+116585FM-15+003599999V0203001N006019999999Y999999999+00101-00801999999ADDMA1102301999999REMMET053METAR ZBAA 072030Z 30006MPS CAVOK 01/M08 Q1023 NOSIG=
0115545110999992017010721004+39933+116283FM-12+005599999V0203201N00101002401CN023000199+00061-00891102301ADDAA124000231GF109991999999999999999999MD1710091+9999REMSYN05254511 32/73 93201 10006 21089 40230 57009 333 70002=
0080545110999992017010721004+40080+116585FM-15+003599999V0203101N005019999999Y999999999+00001-00801999999ADDMA1102301999999REMMET053METAR ZBAA 072100Z 31005MPS CAVOK 00/M08 Q1023 NOSIG=
0080545110999992017010721304+40080+116585FM-15+003599999V0203101N006019999999Y999999999+00001-00901999999ADDMA1102301999999REMMET053METAR ZBAA 072130Z 31006MPS CAVOK 00/M09 Q1023 NOSIG=
0080545110999992017010722004+40080+116585FM-15+003599999V0203101N006019999999Y999999999+00001-00901999999ADDMA1102301999999REMMET053METAR ZBAA 072200Z 31006MPS CAVOK 00/M09 Q1023 NOSIG=
0080545110999992017010722304+40080+116585FM-15+003599999V0203101N007019999999Y999999999+00101-01001999999ADDMA1102301999999REMMET053METAR ZBAA 072230Z 31007MPS CAVOK 01/M10 Q1023 NOSIG=
0080545110999992017010723004+40080+116585FM-15+003599999V0203101N007019999999Y999999999+00001-00901999999ADDMA1102301999999REMMET053METAR ZBAA 072300Z 31007MPS CAVOK 00/M09 Q1023 NOSIG=
0080545110999992017010723304+40080+116585FM-15+003599999V0203101N006019999999Y999999999+00001-01001999999ADDMA1102301999999REMMET053METAR ZBAA 072330Z 31006MPS CAVOK 00/M10 Q1023 NOSIG=
0163545110999992017010800004+39800+116470FM-12+003199999V0203201N0030199999999025000199+00071-01021102381ADDAA106999999AA224000231GA1031+026001101GA2999+999999101GA3999+999999101GE19MSL   +99999+99999GF103991031999026001999999MA1999999101971MD1210081-0101REMSYN004BUFR
0080545110999992017010800004+40080+116585FM-15+003599999V0203101N006019999999Y999999999+00001-01001999999ADDMA1102401999999REMMET053METAR ZBAA 080000Z 31006MPS CAVOK 00/M10 Q1024 NOSIG=
0080545110999992017010800304+40080+116585FM-15+003599999V0203101N007019999999Y999999999+00101-01001999999ADDMA1102401999999REMMET053METAR ZBAA 080030Z 31007MPS CAVOK 01/M10 Q1024 NOSIG=
0080545110999992017010801004+40080+116585FM-15+003599999V0203001N007019999999Y999999999+00101-01001999999ADDMA1102401999999REMMET053METAR ZBAA 080100Z 30007MPS CAVOK 01/M10 Q1024 NOSIG=
0080545110999992017010801304+40080+116585FM-15+003599999V0203101N006019999999Y999999999+00201-01001999999ADDMA1102401999999REMMET053METAR ZBAA 080130Z 31006MPS CAVOK 02/M10 Q1024 NOSIG=
0080545110999992017010802004+40080+116585FM-15+003599999V0203201N007019999999Y999999999+00201-01001999999ADDMA1102401999999REMMET053METAR ZBAA 080200Z 32007MPS CAVOK 02/M10 Q1024 NOSIG=
0080545110999992017010802304+40080+116585FM-15+003599999V0203201N007019999999Y999999999+00401-01001999999ADDMA1102301999999REMMET053METAR ZBAA 080230Z 32007MPS CAVOK 04/M10 Q1023 NOSIG=
0138545110999992017010803004+39933+116283FM-12+005599999V0203601N004019999999N020000199+00401-01011102331ADDGA1071+999999999GE19MSL   +99999+99999GF107991071999999999999999MD1710051+9999REMSYN04854511 32970 73604 10040 21101 40233 57005 87///=
0080545110999992017010803004+40080+116585FM-15+003599999V0203201N006019999999Y999999999+00401-00901999999ADDMA1102301999999REMMET053METAR ZBAA 080300Z 32006MPS CAVOK 04/M09 Q1023 NOSIG=
0080545110999992017010803304+40080+116585FM-15+003599999V0203201N007019999999Y999999999+00501-01001999999ADDMA1102301999999REMMET053METAR ZBAA 080330Z 32007MPS CAVOK 05/M10 Q1023 NOSIG=
0091545110999992017010804004+40080+116585FM-15+003599999V0203201N008019999999Y999999999+00501-01101999999ADDMA1102201999999OC101301REMMET056METAR ZBAA 080400Z 32008G13MPS CAVOK 05/M11 Q1022 NOSIG=
0099545110999992017010804304+40080+116585FM-15+003599999V0203201V008019999999Y999999999+00501-01101999999ADDMA1102101999999OC101301REMMET064METAR ZBAA 080430Z 32008G13MPS 290V350 CAVOK 05/M11 Q1021 NOSIG=
0080545110999992017010805004+40080+116585FM-15+003599999V0203301N007019999999Y999999999+00601-01001999999ADDMA1102101999999REMMET053METAR ZBAA 080500Z 33007MPS CAVOK 06/M10 Q1021 NOSIG=
0080545110999992017010805304+40080+116585FM-15+003599999V0203301N007019999999Y999999999+00701-01101999999ADDMA1102001999999REMMET053METAR ZBAA 080530Z 33007MPS CAVOK 07/M11 Q1020 NOSIG=
0176545110999992017010806004+39800+116470FM-12+003199999V0202201N0020102600199009000199+00621-00641102021ADDAA106999999AA224999999GA1061+026001101GA2999+999999101GA3999+999999101GE19MSL   +99999+99999GF106991061999026001999999KA1240N-00141MA1999999101611MD1710311+9999REMSYN004BUFR
0088545110999992017010806004+40080+116585FM-15+003599999V0203201V007019999999Y999999999+00701-01101999999ADDMA1102001999999REMMET061METAR ZBAA 080600Z 32007MPS 290V350 CAVOK 07/M11 Q1020 NOSIG=
0080545110999992017010806304+40080+116585FM-15+003599999V0203201N008019999999Y999999999+00701-01101999999ADDMA1102001999999REMMET053METAR ZBAA 080630Z 32008MPS CAVOK 07/M11 Q1020 NOSIG=
0091545110999992017010807004+40080+116585FM-15+003599999V0203201N008019999999Y999999999+00701-01001999999ADDMA1101901999999OC101301REMMET056METAR ZBAA 080700Z 32008G13MPS CAVOK 07/M10 Q1019 NOSIG=
0099545110999992017010807304+40080+116585FM-15+003599999V0203001V007019999999Y999999999+00701-01101999999ADDMA1102001999999OC101201REMMET064METAR ZBAA 080730Z 30007G12MPS 280V340 CAVOK 07/M11 Q1020 NOSIG=
0091545110999992017010808004+40080+116585FM-15+003599999V0203001N008019999999Y999999999+00601-01001999999ADDMA1102001999999OC101301REMMET056METAR ZBAA 080800Z 30008G13MPS CAVOK 06/M10 Q1020 NOSIG=
0091545110999992017010808304+40080+116585FM-15+003599999V0203001N008019999999Y999999999+00601-01001999999ADDMA1102001999999OC101301REMMET056METAR ZBAA 080830Z 30008G13MPS CAVOK 06/M10 Q1020 NOSIG=
0185545110999992017010809004+39933+116283FM-12+005599999V0202201N003019999999N001500199+00231+99999102091ADDAY101021AY201021GA1061+999999999GE19MSL   +99999+99999GF106991061999999999999999MD1210071+9999MW1051REMSYN05454511 31915 62203 10023 21020 40209 52007 70500 86///=EQDQ01-2    3ATOD  
0088545110999992017010809004+40080+116585FM-15+003599999V0202901V007019999999Y999999999+00601-01101999999ADDMA1102001999999REMMET061METAR ZBAA 080900Z 29007MPS 260V320 CAVOK 06/M11 Q1020 NOSIG=
0088545110999992017010809304+40080+116585FM-15+003599999V0202801V005019999999Y999999999+00501-01001999999ADDMA1102001999999REMMET061METAR ZBAA 080930Z 28005MPS 250V330 CAVOK 05/M10 Q1020 NOSIG=
0080545110999992017010810004+40080+116585FM-15+003599999V0203001N009019999999Y999999999+00501-01101999999ADDMA1102001999999REMMET053METAR ZBAA 081000Z 30009MPS CAVOK 05/M11 Q1020 NOSIG=
0080545110999992017010810304+40080+116585FM-15+003599999V0203101N008019999999Y999999999+00501-01101999999ADDMA1102101999999REMMET053METAR ZBAA 081030Z 31008MPS CAVOK 05/M11 Q1021 NOSIG=
0080545110999992017010811004+40080+116585FM-15+003599999V0203001N008019999999Y999999999+00501-01101999999ADDMA1102101999999REMMET053METAR ZBAA 081100Z 30008MPS CAVOK 05/M11 Q1021 NOSIG=
0080545110999992017010811304+40080+116585FM-15+003599999V0203201N008019999999Y999999999+00501-01201999999ADDMA1102201999999REMMET053METAR ZBAA 081130Z 32008MPS CAVOK 05/M12 Q1022 NOSIG=
0134545110999992017010812004+39800+116470FM-12+003199999V0202201N0010122000199001000199-00071+99999102241ADDAA106999999AA224999999AY101061AY201061GF100991999999999999999999MA1999999101831MD1210151+9999MW1051REMSYN004BUFREQDQ01-3    3ATOD  
0080545110999992017010812004+40080+116585FM-15+003599999V0203201N011019999999Y999999999+00401-01201999999ADDMA1102201999999REMMET053METAR ZBAA 081200Z 32011MPS CAVOK 04/M12 Q1022 NOSIG=
0080545110999992017010812304+40080+116585FM-15+003599999V0203201N008019999999Y999999999+00401-01201999999ADDMA1102201999999REMMET053METAR ZBAA 081230Z 32008MPS CAVOK 04/M12 Q1022 NOSIG=
0080545110999992017010813004+40080+116585FM-15+003599999V0203001N009019999999Y999999999+00401-01301999999ADDMA1102301999999REMMET053METAR ZBAA 081300Z 30009MPS CAVOK 04/M13 Q1023 NOSIG=
0080545110999992017010813304+40080+116585FM-15+003599999V0203201N009019999999Y999999999+00401-01201999999ADDMA1102301999999REMMET053METAR ZBAA 081330Z 32009MPS CAVOK 04/M12 Q1023 NOSIG=
0080545110999992017010814004+40080+116585FM-15+003599999V0203301N009019999999Y999999999+00301-01301999999ADDMA1102301999999REMMET053METAR ZBAA 081400Z 33009MPS CAVOK 03/M13 Q1023 NOSIG=
0080545110999992017010814304+40080+116585FM-15+003599999V0203201N008019999999Y999999999+00301-01301999999ADDMA1102401999999REMMET053METAR ZBAA 081430Z 32008MPS CAVOK 03/M13 Q1024 NOSIG=
0094545110999992017010815004+39933+116283FM-12+005599999V0200201N00401002401CN030000199+00281-01151102461ADDGF109991999999999999999999MD1210221+9999REMSYN04254511 32/80 90204 10028 21115 40246 52022=
0080545110999992017010815004+40080+116585FM-15+003599999V0203001N009019999999Y999999999+00301-01301999999ADDMA1102501999999REMMET053METAR ZBAA 081500Z 30009MPS CAVOK 03/M13 Q1025 NOSIG=
0080545110999992017010815304+40080+116585FM-15+003599999V0203101N008019999999Y999999999+00201-01301999999ADDMA1102501999999REMMET053METAR ZBAA 081530Z 31008MPS CAVOK 02/M13 Q1025 NOSIG=
0091545110999992017010816004+40080+116585FM-15+003599999V0203101N009019999999Y999999999+00201-01401999999ADDMA1102501999999OC101401REMMET056METAR ZBAA 081600Z 31009G14MPS CAVOK 02/M14 Q1025 NOSIG=
0080545110999992017010816304+40080+116585FM-15+003599999V0203201N008019999999Y999999999+00101-01401999999ADDMA1102601999999REMMET053METAR ZBAA 081630Z 32008MPS CAVOK 01/M14 Q1026 NOSIG=
0080545110999992017010817004+40080+116585FM-15+003599999V0203301N008019999999Y999999999+00101-01301999999ADDMA1102601999999REMMET053METAR ZBAA 081700Z 33008MPS CAVOK 01/M13 Q1026 NOSIG=
0080545110999992017010817304+40080+116585FM-15+003599999V0203301N007019999999Y999999999+00001-01301999999ADDMA1102601999999REMMET053METAR ZBAA 081730Z 33007MPS CAVOK 00/M13 Q1026 NOSIG=
0067545110999992017010818004+39800+116470FM-12+003199999V0203601N0050199999999030000199+00121-01261102671ADDAA106999999AA224999999MA1999999102261MD1210211+9999REMSYN004BUFR
0080545110999992017010818004+40080+116585FM-15+003599999V0203301N007019999999Y999999999+00001-01301999999ADDMA1102701999999REMMET053METAR ZBAA 081800Z 33007MPS CAVOK 00/M13 Q1027 NOSIG=
0081545110999992017010818304+40080+116585FM-15+003599999V0203301N007019999999Y999999999+00001-01401999999ADDMA1102701999999REMMET054METAR ZBAA 081830Z 33007MPS CAVOK M00/M14 Q1027 NOSIG=
0081545110999992017010819004+40080+116585FM-15+003599999V0203301N006019999999Y999999999-00101-01201999999ADDMA1102701999999REMMET054METAR ZBAA 081900Z 33006MPS CAVOK M01/M12 Q1027 NOSIG=
0089545110999992017010819304+40080+116585FM-15+003599999V0203601V004019999999Y999999999-00301-01301999999ADDMA1102801999999REMMET062METAR ZBAA 081930Z 36004MPS 330V030 CAVOK M03/M13 Q1028 NOSIG=
0081545110999992017010820004+40080+116585FM-15+003599999V0203301N002019999999Y999999999-00301-01301999999ADDMA1102801999999REMMET054METAR ZBAA 082000Z 33002MPS CAVOK M03/M13 Q1028 NOSIG=
0081545110999992017010820304+40080+116585FM-15+003599999V0203201N004019999999Y999999999-00201-01201999999ADDMA1102801999999REMMET054METAR ZBAA 082030Z 32004MPS CAVOK M02/M12 Q1028 NOSIG=
0094545110999992017010821004+39933+116283FM-12+005599999V0203601N00501002401CN030000199-00031-01391102771ADDGF109991999999999999999999MD1210101+9999REMSYN04254511 32/80 93605 11003 21139 40277 52010=
0081545110999992017010821004+40080+116585FM-15+003599999V0203101N004019999999Y999999999-00201-01201999999ADDMA1102801999999REMMET054METAR ZBAA 082100Z 31004MPS CAVOK M02/M12 Q1028 NOSIG=
0081545110999992017010821304+40080+116585FM-15+003599999V0203201N006019999999Y999999999-00201-01201999999ADDMA1102801999999REMMET054METAR ZBAA 082130Z 32006MPS CAVOK M02/M12 Q1028 NOSIG=
0081545110999992017010822004+40080+116585FM-15+003599999V0203201N006019999999Y999999999-00201-01301999999ADDMA1102801999999REMMET054METAR ZBAA 082200Z 32006MPS CAVOK M02/M13 Q1028 NOSIG=
0081545110999992017010822304+40080+116585FM-15+003599999V0203301N006019999999Y999999999-00201-01301999999ADDMA1102801999999REMMET054METAR ZBAA 082230Z 33006MPS CAVOK M02/M13 Q1028 NOSIG=
0081545110999992017010823004+40080+116585FM-15+003599999V0203301N006019999999Y999999999-00201-01301999999ADDMA1102901999999REMMET054METAR ZBAA 082300Z 33006MPS CAVOK M02/M13 Q1029 NOSIG=
0081545110999992017010823304+40080+116585FM-15+003599999V0203401N005019999999Y999999999-00201-01301999999ADDMA1102901999999REMMET054METAR ZBAA 082330Z 34005MPS CAVOK M02/M13 Q1029 NOSIG=
0093545110999992017010900004+39800+116470FM-12+003199999V0200401N0020122000199030000199-00151-01431102911ADDAA106999999AA224999999GF100991999999999999999999MA1999999102491MD1210131+0501REMSYN004BUFR
0081545110999992017010900004+40080+116585FM-15+003599999V0203601N005019999999Y999999999-00301-01301999999ADDMA1102901999999REMMET054METAR ZBAA 090000Z 36005MPS CAVOK M03/M13 Q1029 NOSIG=
0081545110999992017010900304+40080+116585FM-15+003599999V0200101N004019999999Y999999999-00201-01301999999ADDMA1102901999999REMMET054METAR ZBAA 090030Z 01004MPS CAVOK M02/M13 Q1029 NOSIG=
0089545110999992017010901004+40080+116585FM-15+003599999V0200301V004019999999Y999999999-00101-01201999999ADDMA1102901999999REMMET062METAR ZBAA 090100Z 03004MPS 010V080 CAVOK M01/M12 Q1029 NOSIG=
0081545110999992017010901304+40080+116585FM-15+003599999V0200201N005019999999Y999999999+00001-01401999999ADDMA1102901999999REMMET054METAR ZBAA 090130Z 02005MPS CAVOK M00/M14 Q1029 NOSIG=
0088545110999992017010902004+40080+116585FM-15+003599999V0203601V004019999999Y999999999+00101-01401999999ADDMA1102901999999REMMET061METAR ZBAA 090200Z 36004MPS 320V030 CAVOK 01/M14 Q1029 NOSIG=
0088545110999992017010902304+40080+116585FM-15+003599999V0200201V004019999999Y999999999+00101-01401999999ADDMA1102901999999REMMET061METAR ZBAA 090230Z 02004MPS 330V040 CAVOK 01/M14 Q1029 NOSIG=
0068545110999992017010903004+39933+116283FM-12+005599999V0200701N003019999999N030000199+00111-01451102861ADDMD1710041+9999REMSYN04254511 32980 00703 10011 21145 40286 57004=
0080545110999992017010903004+40080+116585FM-15+003599999V0203501N005019999999Y999999999+00301-01401999999ADDMA1102801999999REMMET053METAR ZBAA 090300Z 35005MPS CAVOK 03/M14 Q1028 NOSIG=
0080545110999992017010903304+40080+116585FM-15+003599999V0203601N005019999999Y999999999+00301-01401999999ADDMA1102801999999REMMET053METAR ZBAA 090330Z 36005MPS CAVOK 03/M14 Q1028 NOSIG=
0088545110999992017010904004+40080+116585FM-15+003599999V0203401V005019999999Y999999999+00301-01501999999ADDMA1102701999999REMMET061METAR ZBAA 090400Z 34005MPS 300V010 CAVOK 03/M15 Q1027 NOSIG=
0099545110999992017010904304+40080+116585FM-15+003599999V0203301V004019999999Y999999999+00401-01501999999ADDMA1102601999999OC100901REMMET064METAR ZBAA 090430Z 33004G09MPS 290V360 CAVOK 04/M15 Q1026 NOSIG=
0088545110999992017010905004+40080+116585FM-15+003599999V0202801V004019999999Y999999999+00401-01501999999ADDMA1102501999999REMMET061METAR ZBAA 090500Z 28004MPS 250V320 CAVOK 04/M15 Q1025 NOSIG=
0080545110999992017010905304+40080+116585FM-15+003599999V0209999V003019999999Y999999999+00401-01501999999ADDMA1102501999999REMMET053METAR ZBAA 090530Z VRB03MPS CAVOK 04/M15 Q1025 NOSIG=
0106545110999992017010906004+39800+116470FM-12+003199999V0202201N0030122000199028000199+00371-01391102511ADDAA106999999AA224999999GF100991999999999999999999KA1240N-00151MA1999999102101MD1710351+9999REMSYN004BUFR
0100545110999992017010906004+40080+116585FM-15+003599999V0209999V003019999999Y999999999+00401-01501999999ADDMA1102401999999REMMET073METAR COR ZBAA 090600Z VRB03MPS CAVOK 04/M15 Q1024 BECMG TL0740 20005MPS=
0088545110999992017010906304+40080+116585FM-15+003599999V0202201V004019999999Y999999999+00501-01401999999ADDMA1102401999999REMMET061METAR ZBAA 090630Z 22004MPS 190V300 CAVOK 05/M14 Q1024 NOSIG=
0088545110999992017010907004+40080+116585FM-15+003599999V0202301V006019999999Y999999999+00401-01401999999ADDMA1102401999999REMMET061METAR ZBAA 090700Z 23006MPS 190V250 CAVOK 04/M14 Q1024 NOSIG=
0080545110999992017010907304+40080+116585FM-15+003599999V0202201N005019999999Y999999999+00401-01401999999ADDMA1102301999999REMMET053METAR ZBAA 090730Z 22005MPS CAVOK 04/M14 Q1023 NOSIG=
0080545110999992017010908004+40080+116585FM-15+003599999V0202301N007019999999Y999999999+00401-01201999999ADDMA1102301999999REMMET053METAR ZBAA 090800Z 23007MPS CAVOK 04/M12 Q1023 NOSIG=
0080545110999992017010908304+40080+116585FM-15+003599999V0202301N007019999999Y999999999+00301-01301999999ADDMA1102301999999REMMET053METAR ZBAA 090830Z 23007MPS CAVOK 03/M13 Q1023 NOSIG=
0068545110999992017010909004+39933+116283FM-12+005599999V0202201N004019999999N010000199+00171-01111102381ADDMD1710131+9999REMSYN04254511 32960 02204 10017 21111 40238 57013=
0080545110999992017010909004+40080+116585FM-15+003599999V0202201N006019999999Y999999999+00301-01301999999ADDMA1102301999999REMMET053METAR ZBAA 090900Z 22006MPS CAVOK 03/M13 Q1023 NOSIG=
0080545110999992017010909304+40080+116585FM-15+003599999V0202201N006019999999Y999999999+00201-01401999999ADDMA1102301999999REMMET053METAR ZBAA 090930Z 22006MPS CAVOK 02/M14 Q1023 NOSIG=
0080545110999992017010910004+40080+116585FM-15+003599999V0202101N006019999999Y999999999+00201-01201999999ADDMA1102301999999REMMET053METAR ZBAA 091000Z 21006MPS CAVOK 02/M12 Q1023 NOSIG=
0080545110999992017010910304+40080+116585FM-15+003599999V0202201N006019999999Y999999999+00101-01201999999ADDMA1102301999999REMMET053METAR ZBAA 091030Z 22006MPS CAVOK 01/M12 Q1023 NOSIG=
0080545110999992017010911004+40080+116585FM-15+003599999V0202201N006019999999Y999999999+00101-01101999999ADDMA1102301999999REMMET053METAR ZBAA 091100Z 22006MPS CAVOK 01/M11 Q1023 NOSIG=
0080545110999992017010911304+40080+116585FM-15+003599999V0202201N005019999999Y999999999+00001-01101999999ADDMA1102301999999REMMET053METAR ZBAA 091130Z 22005MPS CAVOK 00/M11 Q1023 NOSIG=
0115545110999992017010912004+39800+116470FM-12+003199999V0202501N0040122000199003800199-00021-00811102381ADDAA106999999AA224999999AY101061AY201061GF100991999999999999999999MA1999999101971MD1410001+9999MW1051REMSYN004BUFR
0089545110999992017010912004+40080+116585FM-15+003599999V0201901V002019999999Y999999999-00101-01001999999ADDMA1102301999999REMMET062METAR ZBAA 091200Z 19002MPS 160V230 CAVOK M01/M10 Q1023 NOSIG=
0081545110999992017010912304+40080+116585FM-15+003599999V0201801N002019999999Y999999999-00101-00901999999ADDMA1102301999999REMMET054METAR ZBAA 091230Z 18002MPS CAVOK M01/M09 Q1023 NOSIG=
0080545110999992017010913004+40080+116585FM-15+003599999V0202201N004019999999Y999999999+00001-00901999999ADDMA1102301999999REMMET053METAR ZBAA 091300Z 22004MPS CAVOK 00/M09 Q1023 NOSIG=
0088545110999992017010913304+40080+116585FM-15+003599999V0202101V003019999999Y999999999+00001-00901999999ADDMA1102301999999REMMET061METAR ZBAA 091330Z 21003MPS 170V260 CAVOK 00/M09 Q1023 NOSIG=
0089545110999992017010914004+40080+116585FM-15+003599999V0202001V002019999999Y999999999+00001-00801999999ADDMA1102301999999REMMET062METAR ZBAA 091400Z 20002MPS 140V300 CAVOK M00/M08 Q1023 NOSIG=
0088545110999992017010914304+40080+116585FM-15+003599999V0202101V002019999999Y999999999+00001-00801999999ADDMA1102401999999REMMET061METAR ZBAA 091430Z 21002MPS 150V290 CAVOK 00/M08 Q1024 NOSIG=
0106545110999992017010915004+39933+116283FM-12+005599999V0202701N00301002401CN002300199-00091-00711102491ADDGF109991999999999999999999MD1210111+9999MW1051REMSYN04854511 31/23 92703 11009 21071 40249 52011 705//=
0081545110999992017010915004+40080+116585FM-15+003599999V0209999V001019999999Y999999999-00301-00701999999ADDMA1102401999999REMMET054METAR ZBAA 091500Z VRB01MPS CAVOK M03/M07 Q1024 NOSIG=
0081545110999992017010915304+40080+116585FM-15+003599999V0209999V001019999999Y999999999-00401-00801999999ADDMA1102501999999REMMET054METAR ZBAA 091530Z VRB01MPS CAVOK M04/M08 Q1025 NOSIG=
0089545110999992017010916004+40080+116585FM-15+003599999V0203401V003019999999Y999999999-00301-00901999999ADDMA1102501999999REMMET062METAR ZBAA 091600Z 34003MPS 310V030 CAVOK M03/M09 Q1025 NOSIG=
0080545110999992017010916304+40080+116585FM-15+003599999V0203401N007019999999Y999999999+00001-01501999999ADDMA1102601999999REMMET053METAR ZBAA 091630Z 34007MPS CAVOK 00/M15 Q1026 NOSIG=
0080545110999992017010917004+40080+116585FM-15+003599999V0203301N009019999999Y999999999+00101-01801999999ADDMA1102601999999REMMET053METAR ZBAA 091700Z 33009MPS CAVOK 01/M18 Q1026 NOSIG=
0080545110999992017010917304+40080+116585FM-15+003599999V0203301N008019999999Y999999999+00001-01801999999ADDMA1102701999999REMMET053METAR ZBAA 091730Z 33008MPS CAVOK 00/M18 Q1027 NOSIG=
0067545110999992017010918004+39800+116470FM-12+003199999V0200201N0030199999999030000199+00111-01501102741ADDAA106999999AA224999999MA1999999102331MD1210251+9999REMSYN004BUFR
0081545110999992017010918004+40080+116585FM-15+003599999V0203401N007019999999Y999999999-00101-01701999999ADDMA1102701999999REMMET054METAR ZBAA 091800Z 34007MPS CAVOK M01/M17 Q1027 NOSIG=
0081545110999992017010918304+40080+116585FM-15+003599999V0203301N008019999999Y999999999-00101-01701999999ADDMA1102801999999REMMET054METAR ZBAA 091830Z 33008MPS CAVOK M01/M17 Q1028 NOSIG=
0081545110999992017010919004+40080+116585FM-15+003599999V0203201N009019999999Y999999999-00101-01701999999ADDMA1102801999999REMMET054METAR ZBAA 091900Z 32009MPS CAVOK M01/M17 Q1028 NOSIG=
